:020000040800F2
:100000000000022065280008A1120008A3120008C1
:10001000A5120008A7120008A9120008000000009D
:10002000000000000000000000000000AB1200080B
:10003000AD12000800000000AF120008B112000865
:10004000B5280008B5280008B5280008B52800081C
:10005000B5280008B5280008B5280008B52800080C
:10006000B5280008B5280008B5280008B5280008FC
:10007000B5280008B5280008B5280008B5280008EC
:10008000B5280008B5280008B5280008B5280008DC
:10009000B5280008B5280008B5280008B5280008CC
:1000A000B5280008B5280008B5280008B5280008BC
:1000B000B5280008B5280008B5280008B5280008AC
:1000C000B5280008B5280008B5280008B52800089C
:1000D000B5280008B9120008B5280008B52800089E
:1000E000B5280008B5280008B5280008B52800087C
:1000F000B5280008B5280008B5280008B52800086C
:10010000B5280008B5280008B5280008B52800085B
:10011000B5280008B5280008B5280008C91200084D
:10012000B5280008B5280008B5280008B52800083B
:10013000B5280008B5280008B5280008B52800082B
:10014000B5280008B5280008B5280008B52800081B
:10015000B5280008B5280008B5280008B52800080B
:10016000B5280008B5280008B5280008B5280008FB
:10017000B5280008B5280008B528000800000000D0
:08018000B5280008B5280008AD
:1001C00010B5054C237833B9044B13B10448AFF391
:1001D00000800123237010BDB8090020000000003A
:1001E000BC77000808B5034B1BB103490348AFF3C4
:1001F000008008BD00000000BC090020BC7700089A
:1002000053B94AB9002908BF00281CBF4FF0FF317D
:100210004FF0FF3000F06CB9ADF1080C6DE904CE81
:1002200000F006F8DDF804E0DDE9022304B07047D1
:100230002DE9F047089E0D4604468E46002B40F0FF
:1002400082808A42174646D9B2FA82F24AB1C2F196
:10025000200105FA02F320FA01F1974041EA030E6A
:1002600094404FEA1748230CBEFBF8FCB9B208FBD8
:100270001CEE43EA0E430CFB01F098420AD9FB182E
:100280000CF1FF3580F01681984240F21381ACF1F9
:10029000020C3B441B1AA4B2B3FBF8F008FB10336A
:1002A00044EA034400FB01F1A14209D93C1900F1E1
:1002B000FF3380F00181A14240F2FE8002383C44CD
:1002C000641A40EA0C4000211EB1D4400023C6E964
:1002D0000043BDE8F08702B9FFDEB2FA82F2002ADD
:1002E0004FD1CB1B4FEA174E1FFA87F80121B3FB02
:1002F000FEFC250C0EFB1C3345EA034508FB0CF302
:10030000AB4207D97D190CF1FF3002D2AB4200F2AB
:10031000E7808446ED1AA3B2B5FBFEF00EFB105544
:1003200043EA054408FB00F8A04507D93C1900F151
:10033000FF3302D2A04500F2D7801846A4EB080490
:1003400040EA0C40C0E78B4208D9002E00F0AF8095
:100350000021C6E900050846BDE8F087B3FA83F13D
:1003600000294BD1AB4202D3824200F2B780841AFB
:1003700065EB030301209E46002EAAD0C6E9004E7D
:10038000A7E7C2F1200C01FA02F3974020FA0CF023
:100390004FEA174E21FA0CFC1843BCFBFEF1050C8A
:1003A0000EFB11CC1FFA87F845EA0C4501FB08F358
:1003B000AB4204FA02F409D97D1901F1FF3C80F047
:1003C0008B80AB4240F2888002393D44EB1A85B203
:1003D000B3FBFEF00EFB103345EA034500FB08F3C8
:1003E000AB4207D97D1900F1FF3C71D2AB426FD906
:1003F00002383D44EB1A40EA014178E7C1F1200C94
:100400008B4022FA0CF71F4320FA0CF405FA01F393
:100410004FEA174E25FA0CF51C43230CB5FBFEF9E9
:100420001FFA87F80EFB195543EA054509FB08FA40
:10043000AA4502FA01F200FA01F308D97D1909F17F
:10044000FF3047D2AA4545D9A9F102093D44A5EBA1
:100450000A05A4B2B5FBFEF00EFB105544EA0544B4
:1004600000FB08F8A04507D93C1900F1FF352DD253
:10047000A0452BD902383C4440EA0940A4EB0804CB
:10048000A0FB02894C45C6464D4619D316D05EB135
:10049000B3EB0E0264EB050404FA0CFCCA404CEA10
:1004A0000202CC40C6E900240021BDE8F0873146B5
:1004B00030460EE7AC46EDE6184601E74345E6D286
:1004C000B8EB020E69EB07050138E0E72846D3E7F1
:1004D00060468FE78146BAE7614677E708464BE713
:1004E000ACF1020C3D4415E702383C4426E700BF5E
:1004F000704700BF00000000000000000000000086
:1005000001F0FF01102A2BDB10F0070F08D010F8C4
:10051000013B013A8B422DD010F0070F42B3F6D1C8
:10052000F0B441EA012141EA014122F007047FF0E1
:1005300000070023F0E80256083C85EA010586EA38
:10054000010685FA47F5A3FA87F586FA47F6A5FA74
:1005500087F68EB9EED1F0BC01F0FF0102F0070280
:1005600032B110F8013B013A83EA010313B1F8D12B
:100570000020704701387047002D06BF354603380C
:10058000073815F0010F07D1013015F4807F02BF45
:10059000013015F4C03F0130F0BC0138704700BF96
:1005A000844641EA000313F003036DD1403A41D37E
:1005B00051F8043B40F8043B51F8043B40F8043B3D
:1005C00051F8043B40F8043B51F8043B40F8043B2D
:1005D00051F8043B40F8043B51F8043B40F8043B1D
:1005E00051F8043B40F8043B51F8043B40F8043B0D
:1005F00051F8043B40F8043B51F8043B40F8043BFD
:1006000051F8043B40F8043B51F8043B40F8043BEC
:1006100051F8043B40F8043B51F8043B40F8043BDC
:1006200051F8043B40F8043B51F8043B40F8043BCC
:10063000403ABDD2303211D351F8043B40F8043B6C
:1006400051F8043B40F8043B51F8043B40F8043BAC
:1006500051F8043B40F8043B103AEDD20C3205D37C
:1006600051F8043B40F8043B043AF9D2043208D074
:10067000D2071CBF11F8013B00F8013B01D30B88E6
:1006800003806046704700BF082A13D38B078DD0C4
:1006900010F003038AD0C3F10403D21ADB071CBF96
:1006A00011F8013B00F8013B80D331F8023B20F800
:1006B000023B7BE7043AD9D3013A11F8013B00F839
:1006C000013BF9D20B7803704B7843708B788370C1
:1006D00060467047000000000000000000000000BD
:1006E000000000000000000000000000000000000A
:1006F00000000000000000000000000000000000FA
:1007000090F800F06DE9024520F007016FF0000C51
:1007100010F0070491F820F040F049804FF00004F9
:100720006FF00700D1E9002391F840F000F10800D4
:1007300082FA4CF2A4FA8CF283FA4CF3A2FA8CF30C
:100740004BBBD1E9022382FA4CF200F10800A4FA73
:100750008CF283FA4CF3A2FA8CF3E3B9D1E90423C7
:1007600082FA4CF200F10800A4FA8CF283FA4CF3FE
:10077000A2FA8CF37BB9D1E9062301F1200182FAB8
:100780004CF200F10800A4FA8CF283FA4CF3A2FABE
:100790008CF3002BC6D0002A04BF04301A4612BACC
:1007A000B2FA82F2FDE8024500EBD2007047D1E9CF
:1007B000002304F00305C4F100004FEAC50514F05E
:1007C000040F91F840F00CFA05F562EA05021CBF2F
:1007D00063EA050362464FF00004A9E781F0004197
:1007E00002E000BF83F0004330B54FEA41044FEA16
:1007F000430594EA050F08BF90EA020F1FBF54EAB1
:10080000000C55EA020C7FEA645C7FEA655C00F04C
:10081000E2804FEA5454D4EB5555B8BF6D420CDD1D
:100820002C4480EA020281EA030382EA000083EAA0
:10083000010180EA020281EA0303362D88BF30BD40
:1008400011F0004F4FEA01314FF4801C4CEA113196
:1008500002D0404261EB410113F0004F4FEA0333F5
:100860004CEA133302D0524263EB430394EA050F80
:1008700000F0A780A4F10104D5F1200E0DDB02FAEF
:100880000EFC22FA05F2801841F1000103FA0EF283
:10089000801843FA05F359410EE0A5F120050EF149
:1008A000200E012A03FA0EFC28BF4CF0020C43FA7A
:1008B00005F3C01851EBE37101F0004507D54FF087
:1008C000000EDCF1000C7EEB00006EEB0101B1F5D7
:1008D000801F1BD3B1F5001F0CD349085FEA30001D
:1008E0004FEA3C0C04F101044FEA445212F5800F28
:1008F00080F09A80BCF1004F08BF5FEA500C50F1C5
:10090000000041EB045141EA050130BD5FEA4C0CA7
:10091000404141EB0101013C28BFB1F5801FE9D204
:1009200091F0000F04BF01460020B1FA81F308BF27
:100930002033A3F10B03B3F120020CDA0C3208DDF3
:1009400002F1140CC2F10C0201FA0CF021FA02F1CE
:100950000CE002F11402D8BFC2F1200C01FA02F13E
:1009600020FA0CFCDCBF41EA0C019040E41AA2BF63
:1009700001EB0451294330BD6FEA04041F3C1CDA2B
:100980000C340EDC04F11404C4F1200220FA04F04B
:1009900001FA02F340EA030021FA04F345EA0301F5
:1009A00030BDC4F10C04C4F1200220FA02F001FAB7
:1009B00004F340EA0300294630BD21FA04F0294639
:1009C00030BD94F0000F83F4801306BF81F48011D2
:1009D0000134013D4EE77FEA645C18BF7FEA655C45
:1009E00029D094EA050F08BF90EA020F05D054EA17
:1009F000000C04BF1946104630BD91EA030F1EBF1C
:100A00000021002030BD5FEA545C05D1400049411F
:100A100028BF41F0004130BD14F580043CBF01F512
:100A2000801130BD01F0004545F0FE4141F47001F8
:100A30004FF0000030BD7FEA645C1ABF19461046D3
:100A40007FEA655C1CBF0B46024650EA013406BFD4
:100A500052EA033591EA030F41F4002130BD00BF93
:100A600090F0000F04BF0021704730B54FF4806450
:100A700004F132044FF000054FF0000150E700BFD1
:100A800090F0000F04BF0021704730B54FF4806430
:100A900004F1320410F0004548BF40424FF000011D
:100AA0003EE700BF42004FEAE2014FEA31014FEA60
:100AB00002701FBF12F07F4393F07F4F81F06051AF
:100AC000704732F07F4208BF704793F07F4F04BFFA
:100AD00041F40021704730B54FF4607401F00045D7
:100AE00021F000411CE700BF50EA010208BF704737
:100AF00030B54FF000050AE050EA010208BF704728
:100B000030B511F0004502D5404261EB41014FF490
:100B1000806404F132045FEA915C3FF4D8AE4FF098
:100B200003025FEADC0C18BF03325FEADC0C18BF7B
:100B3000033202EBDC02C2F1200300FA03FC20FACC
:100B400002F001FA03FE40EA0E0021FA02F1144419
:100B5000BDE600BF70B54FF0FF0C4CF4E06C1CEA32
:100B600011541DBF1CEA135594EA0C0F95EA0C0FA3
:100B700000F0DEF82C4481EA030621EA4C5123EA16
:100B80004C5350EA013518BF52EA033541F4801145
:100B900043F4801338D0A0FB02CE4FF00005E1FBF8
:100BA00002E506F00042E0FB03E54FF00006E1FB42
:100BB00003569CF0000F18BF4EF0010EA4F1FF0485
:100BC000B6F5007F64F5407404D25FEA4E0E6D41C5
:100BD00046EB060642EAC62141EA55514FEAC520D6
:100BE00040EA5E504FEACE2EB4F1FD0C88BFBCF552
:100BF000E06F1ED8BEF1004F08BF5FEA500E50F103
:100C0000000041EB045170BD06F0004646EA0101C8
:100C100040EA020081EA0301B4EB5C04C2BFD4EBFA
:100C20000C0541EA045170BD41F480114FF0000EF3
:100C3000013C00F3AB8014F1360FDEBF002001F061
:100C4000004170BDC4F10004203C35DA0C341BDCDB
:100C500004F11404C4F1200500FA05F320FA04F0AD
:100C600001FA05F240EA020001F0004221F00041E1
:100C700010EBD37021FA04F642EB06015EEA430E54
:100C800008BF20EAD37070BDC4F10C04C4F1200584
:100C900000FA04F320FA05F001FA04F240EA020037
:100CA00001F0004110EBD37041F100015EEA430E08
:100CB00008BF20EAD37070BDC4F1200500FA05F228
:100CC0004EEA020E20FA04F301FA05F243EA0203A7
:100CD00021FA04F001F0004121FA04F220EA0200B6
:100CE00000EBD3705EEA430E08BF20EAD37070BDFC
:100CF00094F0000F0FD101F00046400041EB0101DC
:100D000011F4801F08BF013CF7D041EA060195F0BD
:100D1000000F18BF704703F00046520043EB030377
:100D200013F4801F08BF013DF7D043EA0603704764
:100D300094EA0C0F0CEA135518BF95EA0C0F0CD06F
:100D400050EA410618BF52EA4306D1D181EA0301B5
:100D500001F000414FF0000070BD50EA410606BFAF
:100D60001046194652EA430619D094EA0C0F02D1F4
:100D700050EA013613D195EA0C0F05D152EA033639
:100D80001CBF104619460AD181EA030101F0004157
:100D900041F0FE4141F470014FF0000070BD41F0A0
:100DA000FE4141F4780170BD70B54FF0FF0C4CF47A
:100DB000E06C1CEA11541DBF1CEA135594EA0C0F99
:100DC00095EA0C0F00F0A7F8A4EB050481EA030EE6
:100DD00052EA03354FEA013100F088804FEA0333CD
:100DE0004FF0805545EA131343EA12634FEA02229B
:100DF00045EA111545EA10654FEA00260EF000415C
:100E00009D4208BF964244F1FD0404F5407402D2AD
:100E10005B084FEA3202B61A65EB03055B084FEA3E
:100E200032024FF480104FF4002CB6EB020E75EB3B
:100E3000030E22BFB61A754640EA0C005B084FEA63
:100E40003202B6EB020E75EB030E22BFB61A7546E0
:100E500040EA5C005B084FEA3202B6EB020E75EB2B
:100E6000030E22BFB61A754640EA9C005B084FEAA3
:100E70003202B6EB020E75EB030E22BFB61A7546B0
:100E800040EADC0055EA060E18D04FEA051545EA9F
:100E900016754FEA06164FEAC30343EA52734FEA48
:100EA000C2025FEA1C1CC0D111F4801F0BD141EAC1
:100EB00000014FF000004FF0004CB6E711F4801F26
:100EC00004BF01430020B4F1FD0C88BFBCF5E06F06
:100ED0003FF6AFAEB5EB030C04BFB6EB020C5FEA16
:100EE000500C50F1000041EB045170BD0EF0004E6B
:100EF0004EEA113114EB5C04C2BFD4EB0C0541EA9D
:100F0000045170BD41F480114FF0000E013C90E699
:100F100045EA060E8DE60CEA135594EA0C0F08BF5D
:100F200095EA0C0F3FF43BAF94EA0C0F0AD150EA5C
:100F300001347FF434AF95EA0C0F7FF425AF1046EF
:100F400019462CE795EA0C0F06D152EA03353FF417
:100F5000FDAE1046194622E750EA410618BF52EA94
:100F600043067FF4C5AE50EA41047FF40DAF52EA68
:100F700043057FF4EBAE12E74FF0FF3C06E000BF05
:100F80004FF0010C02E000BF4FF0010C4DF804CD12
:100F90004FEA410C7FEA6C5C4FEA430C18BF7FEAD2
:100FA0006C5C1BD001B050EA410C0CBF52EA430C00
:100FB00091EA030F02BF90EA020F0020704710F180
:100FC000000F91EA030F58BF994208BF90422CBF0F
:100FD000D8176FEAE37040F0010070474FEA410C08
:100FE0007FEA6C5C02D150EA013C07D14FEA430C26
:100FF0007FEA6C5CD6D152EA033CD3D05DF8040B97
:10100000704700BF8446104662468C4619466346C8
:1010100000E000BF01B5FFF7B7FF002848BF10F19F
:10102000000F01BD4DF808EDFFF7F4FF0CBF0120E4
:1010300000205DF808FB00BF4DF808EDFFF7EAFF60
:1010400034BF012000205DF808FB00BF4DF808ED1B
:10105000FFF7E0FF94BF012000205DF808FB00BF10
:101060004DF808EDFFF7CEFF94BF012000205DF89A
:1010700008FB00BF4DF808EDFFF7C4FF34BF0120A7
:1010800000205DF808FB00BF4FEA410C7FEA6C5C72
:1010900002D150EA013C0AD14FEA430C7FEA6C5C72
:1010A00002D152EA033C02D14FF0000070474FF0EA
:1010B000010070474FEA410212F5001215D211D516
:1010C0006FF47873B3EB625212D94FEAC12343F045
:1010D000004343EA505311F0004F23FA02F018BFC7
:1010E000404270474FF00000704750EA013005D190
:1010F00011F0004008BF6FF0004070474FF0000053
:10110000704700BF10B588B0002203920492059288
:10111000069207920092194B196B41F02001196356
:10112000196B01F02001009100990192196B41F0B7
:1011300080011963196B01F08001019101990292FC
:101140001A6B42F001021A631B6B03F00103029356
:10115000029B0B4C01224FF4C061204600F0C6FBFD
:101160004FF4C06303930123049305930223069372
:1011700003A9204600F0D0FA08B010BD00380240A4
:101180000014024072B6FEE700B595B0302200218F
:1011900008A801F0BBFB0023039304930593069377
:1011A00007930193214A116C41F080511164126C34
:1011B00002F080520192019A02931D4B1A6842F488
:1011C00080421A601B6803F480430293029B012350
:1011D00008934FF48033099302230E934FF4800257
:1011E0000F92082210924FF4A872119212930423C6
:1011F000139308A800F080FB98B90F2303930223F0
:101200000493002305934FF4A05306934FF48053A7
:101210000793052103A800F0D1FD20B915B05DF8B2
:1012200004FBFFF7AFFFFFF7ADFF00BF0038024040
:101230000070004008B500F067F9FFF7A5FFFFF761
:1012400061FF00F093F800F0DDF8044801F0AEFB18
:101250004FF4FA7000F084F9F7E700BFD877000880
:1012600000B583B0002100910C4B5A6C42F48042CF
:101270005A645A6C02F480420092009A01911A6CEE
:1012800042F080521A641B6C03F080530193019B5F
:10129000052000F079F903B05DF804FB0038024046
:1012A000FEE7FEE7FEE7FEE7FEE7704770477047A0
:1012B00008B500F043F908BD08B5024801F092F9FD
:1012C00008BD00BF200A002008B5024800F051FE0A
:1012D00008BD00BFD809002070B50C461646002591
:1012E000B54207DAAFF30080214601F8010B013562
:1012F0000C46F5E7304670BD70B50C461646002525
:10130000B54205DA14F8010BAFF300800135F7E7B9
:10131000304670BD08B503460B4A126842B10A4A0E
:10132000106803446A46934206D8074A136008BD12
:10133000054A06491160F2E701F0BEFA0C2303608A
:101340004FF0FF30F3E700BFD4090020C80A0020A7
:101350004FF0FF3070474FF400534B600020704750
:1013600001207047002070477047000000B583B02F
:101370000023009301931048104A026042F2331296
:101380004260836042F21073C3608023836100F087
:1013900011FF50B90023009301936946064800F0FD
:1013A00035FF28B903B05DF804FBFFF7EBFEF1E76A
:1013B000FFF7E8FEF6E700BFD80900200014004060
:1013C00002680E4B9A4200D0704700B583B00023EC
:1013D00001930B4B1A6C42F020021A641B6C03F051
:1013E00020030193019B02220321372000F0DEF845
:1013F000372000F00FF903B05DF804FB0014004043
:101400000038024008B50A480A4B03604FF4E13344
:10141000436000238360C36003610C2242618361E7
:10142000C36101F025F800B908BDFFF7ABFEFBE78B
:10143000200A00200010014010B588B0002303935B
:101440000493059306930793026803F1804303F521
:1014500088339A4201D008B010BD0022019203F5F2
:101460009433596C41F010015964596C01F010012A
:10147000019101990292196B41F0010119631B6BF3
:1014800003F001030293029B4FF4C0630393022312
:1014900004930592032406940723079303A906489F
:1014A00000F03AF922462146252000F07FF8252059
:1014B00000F0B0F8CFE700BF0000024010B50446CE
:1014C0000E4B18784FF47A73B3FBF0F30C4A1068A4
:1014D000B0FBF3F000F0ACF868B90F2C01D9012093
:1014E0000AE0002221464FF0FF3000F05FF8054B84
:1014F0001C60002000E0012010BD00BF040000209F
:10150000000000200800002008B50B4B1A6842F4C8
:1015100000721A601A6842F480621A601A6842F413
:1015200080721A60032000F02FF80020FFF7C6FF3A
:10153000FFF796FE002008BD003C0240034A1168F8
:10154000034B1B780B441360704700BF640A0020F4
:1015500004000020014B1868704700BF640A002097
:1015600038B50446FFF7F6FF0546B4F1FF3F02D059
:10157000044B1B781C44FFF7EDFF401BA042FAD33D
:1015800038BD00BF04000020074AD36823F4E0639D
:101590001B041B0C000200F4E060034343F0BF6334
:1015A00043F40033D360704700ED00E030B4174BD4
:1015B000DB68C3F30223C3F10704042C28BF04240F
:1015C0001D1D062D18D9033B4FF0FF3505FA04F415
:1015D00021EA0401994005FA03F322EA03031943BF
:1015E00000280BDB0901C9B200F1604000F5614041
:1015F00080F8001330BC70470023E5E700F00F00CF
:101600000901C9B2024B1954F4E700BF00ED00E034
:1016100014ED00E0002807DB00F01F024009012361
:101620009340024A42F82030704700BF00E100E0DA
:101630000138B0F1807F0AD2064B5860064AF0218B
:1016400082F823100020986007221A60704701205A
:10165000704700BF10E000E000ED00E070B5044608
:10166000866DFFF777FF94F83530DBB2022B06D09A
:1016700080236365002384F83430012070BD054663
:101680002268136823F0160313602268536923F05D
:1016900080035361236CE3B12268136823F00803CD
:1016A00013602268136823F00103136023681B682A
:1016B00013F0010F11D0FFF74DFF431B052BF5D998
:1016C00020236365032084F83500002384F8343038
:1016D000D4E7A36C002BDFD1E3E7E26D3F23934017
:1016E000B360012384F83530002084F83400C5E766
:1016F00090F83530DBB2022B03D080234365012004
:101700007047052380F835300268136823F0010321
:10171000136000207047000000230F2B00F2DD80D3
:10172000F0B482B05DE086685F000324BC4026EA26
:101730000406CC68BC4034438460466826EA02064E
:101740004C68C4F300129A403243426057E0DC0810
:10175000083450F8247003F0070296000F22B240BC
:1017600027EA02070A69B2403A4340F824205AE0C7
:10177000072200E00022B2403A430234574E46F8B6
:101780002420574A1468EA4324EA05064F6817F4F0
:10179000803F01D045EA0406514C2660646802EAA5
:1017A00004064F6817F4003F01D045EA04064C4C8C
:1017B0006660A46802EA04064F6817F4801F01D02F
:1017C00045EA0406464CA660E46822404E6816F4DA
:1017D000001F01D045EA0402414CE26001330F2BA7
:1017E00078D801229A400C6804EA020532EA04041F
:1017F000F4D14C6804F00304013C012C93D94A68ED
:1018000002F00302032A09D0C4685E000322B2403A
:1018100024EA02048A68B2402243C2604A6802F0A5
:101820000302022A93D004685E000322B24024EA35
:1018300002044A6802F00302B240224302604A688E
:1018400012F4403FCAD000220192264A546C44F45C
:1018500080445464526C02F480420192019A9C08C4
:10186000A61C1E4A52F8267003F0030296000F22AF
:10187000B24027EA02071C4A90423FF47BAF02F5D0
:10188000806290421AD002F58062904218D002F530
:101890008062904216D002F58062904214D002F528
:1018A0008062904212D002F58062904210D002F520
:1018B000806290423FF45CAF08225CE701225AE765
:1018C000022258E7032256E7042254E7052252E792
:1018D000062250E702B0F0BC704770470038014064
:1018E000003C014000380240000002400AB1816122
:1018F0007047090481617047002800F0DF8170B5EE
:1019000082B00446036813F0010F3BD0A64B9B68DE
:1019100003F00C03042B2CD0A34B9B6803F00C03A7
:10192000082B21D06368B3F5803F4FD0B3F5A02FCB
:1019300052D09D4B1A6822F480321A601A6822F441
:1019400080221A606368002B50D0FFF703FE054623
:10195000954B1B6813F4003F14D1FFF7FBFD401BB0
:101960006428F5D90320B0E18F4B5B6813F4800F36
:10197000D8D08D4B1B6813F4003F03D06368002B55
:1019800000F09E81236813F0020F54D0864B9B68B1
:1019900013F00C0F3ED0844B9B6803F00C03082B14
:1019A00033D0E368002B67D0804B01221A60FFF729
:1019B000D1FD05467C4B1B6813F0020F53D1FFF796
:1019C000C9FD401B0228F5D903207EE1764A136841
:1019D00043F480331360B5E7734B1A6842F48022F6
:1019E0001A601A6842F480321A60ABE7FFF7B2FD62
:1019F00005466D4B1B6813F4003FC3D0FFF7AAFDEB
:101A0000401B6428F5D903205FE1674B5B6813F442
:101A1000800FC6D1644B1B6813F0020F03D0E3683C
:101A2000012B40F04F81604A136823F0F8032169CD
:101A300043EAC1031360236813F0080F40D06369C1
:101A400063B35B4B01221A60FFF784FD0546564BDA
:101A50005B6F13F0020F33D1FFF77CFD401B0228B0
:101A6000F5D9032031E1504A136823F0F8032169C6
:101A700043EAC1031360DEE74C4B00221A60FFF714
:101A800069FD0546484B1B6813F0020FD3D0FFF7E2
:101A900061FD401B0228F5D9032016E1444B0022CA
:101AA0001A60FFF757FD05463F4B5B6F13F0020FBF
:101AB00006D0FFF74FFD401B0228F5D9032004E1B3
:101AC000236813F0040F78D0374B1B6C13F0805F42
:101AD0000DD100230193344B1A6C42F080521A64EA
:101AE0001B6C03F080530193019B012500E000254E
:101AF000304B1B6813F4807F21D0A368012B32D0B8
:101B0000052B36D0284B1A6F22F001021A671A6F84
:101B100022F004021A67A368002B34D0FFF71AFDE5
:101B20000646214B1B6F13F0020F45D1FFF712FD44
:101B3000801B41F288339842F3D90320C5E01D4A47
:101B4000136843F480731360FFF704FD0646194BD6
:101B50001B6813F4807FD0D1FFF7FCFC801B0228A8
:101B6000F5D90320B1E0104A136F43F00103136766
:101B7000D1E70D4B1A6F42F004021A671A6F42F058
:101B800001021A67C7E7FFF7E5FC0646064B1B6F25
:101B900013F0020F10D0FFF7DDFC801B41F28833F9
:101BA0009842F3D9032090E00038024000004742F9
:101BB000800E474200700040EDB9A369002B00F091
:101BC0008380494A926802F00C02082A51D0022B05
:101BD00017D0464B00221A60FFF7BCFC0446424B6C
:101BE0001B6813F0007F42D0FFF7B4FC001B0228F3
:101BF000F5D9032069E03C4A136C23F08053136449
:101C0000DBE73A4B00221A60FFF7A4FC0546364B8F
:101C10001B6813F0007F06D0FFF79CFC401B0228D6
:101C2000F5D9032051E0E369226A1343626A43EA6B
:101C30008213A26A5208013A43EA0243E26A43EA83
:101C40000263294A5360294B01221A60FFF782FC84
:101C50000446254B1B6813F0007F06D1FFF77AFC82
:101C6000001B0228F5D903202FE000202DE00020E2
:101C70002BE0012B2BD01C4B5B6803F48001E26945
:101C8000914226D103F03F02216A8A4223D1616A40
:101C900047F6C0721A40B2EB811F1ED103F44031E7
:101CA000A26A5208013AB1EB024F18D103F07063F7
:101CB000E26AB3EB026F14D1002006E00120704706
:101CC000012002E0012000E0002002B070BD0120F0
:101CD000FBE70120F9E70120F7E70120F5E7012004
:101CE000F3E70120F1E700BF0038024060004742FF
:101CF000F8B52F4B9B6803F00C03042B53D0082B33
:101D000053D12B4B5A6802F03F025B6813F4800FEB
:101D100028D0274B5B68C3F3881358010021C01AF1
:101D200061F100018E0146EA906687013C1A66EB7C
:101D30000105E90041EA5471E000C01841F10001D9
:101D40004B0243EAD0534402204619460023FEF7D3
:101D500057FA174B5B68C3F3014301335B00B0FBD9
:101D6000F3F023E0124B5B68C3F388135C0100259A
:101D7000E41A65F10005AE0146EA9466A701381B36
:101D800066EB0501CC0044EA5074C500E81844F144
:101D900000018B0243EA9053840220461946002337
:101DA000FEF72EFAD5E7034800E00348F8BD00BF70
:101DB0000038024000127A000024F400002800F0ED
:101DC0009B8070B50D4604464F4B1B6803F007031C
:101DD0008B4208D2CBB24C4A1370136803F007034E
:101DE0008B4240F08B80236813F0020F17D013F062
:101DF000040F04D0454A936843F4E053936023688A
:101E000013F0080F04D0414A936843F46043936091
:101E10003E4A936823F0F003A1680B439360236864
:101E200013F0010F32D06368012B21D09A1E012AD2
:101E300025D9364A126812F0020F61D033498A68F8
:101E400022F0030213438B60FFF784FB06462F4BFF
:101E50009B6803F00C036268B3EB820F16D0FFF7A8
:101E600079FB801B41F288339842F0D9032042E08D
:101E7000264A126812F4003FE0D101203BE0234AD9
:101E8000126812F0007FD9D1012034E01E4B1B688C
:101E900003F00703AB4207D9EAB21B4B1A701B6869
:101EA00003F00703AB422DD1236813F0040F06D0D3
:101EB000164A936823F4E053E1680B439360236868
:101EC00013F0080F07D0114A936823F46043216987
:101ED00043EAC1039360FFF70BFF0C4B9B68C3F30E
:101EE00003130B4AD35CD8400A4B18600A4B18689E
:101EF000FFF7E4FA002070BD012070470120FAE7E7
:101F00000120F8E70120F6E7003C024000380240DB
:101F1000E07700080000002008000020014B18684E
:101F2000704700BF0000002008B5FFF7F7FF044B23
:101F30009B68C3F38223034AD35CD84008BD00BF2B
:101F400000380240F077000808B5FFF7E7FF044BC0
:101F50009B68C3F34233034AD35CD84008BD00BF3B
:101F600000380240F07700087047704770477047AC
:101F7000704710B5044603681A6912F0020F11D0B9
:101F8000DA6812F0020F0DD06FF002021A6101231D
:101F9000037703689B6913F0030F70D0FFF7E6FF28
:101FA0000023237723681A6912F0040F12D0DA682D
:101FB00012F0040F0ED06FF004021A61022323778F
:101FC00023689B6913F4407F5FD02046FFF7CEFF64
:101FD0000023237723681A6912F0080F12D0DA68F9
:101FE00012F0080F0ED06FF008021A610423237755
:101FF0002368DB6913F0030F4ED02046FFF7B6FFCE
:102000000023237723681A6912F0100F12D0DA68C0
:1020100012F0100F0ED06FF010021A610823237710
:102020002368DB6913F4407F3DD02046FFF79EFF15
:102030000023237723681A6912F0010F03D0DA68AE
:1020400012F0010F36D123681A6912F0800F03D005
:10205000DA6812F0800F34D123681A6912F0400F49
:1020600003D0DA6812F0400F32D123681A6912F0F7
:10207000200F03D0DA6812F0200F30D110BDFFF727
:1020800074FF2046FFF773FF8AE72046FFF76DFFD6
:102090002046FFF76CFF9BE72046FFF766FF2046D0
:1020A000FFF765FFACE72046FFF75FFF2046FFF72D
:1020B0005EFFBDE76FF001021A612046FFF754FF93
:1020C000C1E76FF080021A61204600F0E4F8C3E730
:1020D0006FF040021A612046FFF74AFFC5E76FF034
:1020E00020021A61204600F0D5F8C7E70368304A9D
:1020F000904212D0B0F1804F0FD0A2F57C429042B6
:102100000BD002F58062904207D002F580629042C7
:1021100003D002F57842904203D123F070034A685D
:102120001343234A90422AD0B0F1804F27D0A2F522
:102130007C42904223D002F5806290421FD002F58B
:10214000806290421BD002F57842904217D002F58F
:102150007052904213D002F5806290420FD002F587
:10216000806290420BD0A2F59832904207D002F5DF
:102170008062904203D002F58062904203D123F442
:102180004073CA68134323F080034A691343036012
:102190008B68C3620B688362054B984203D003F5DA
:1021A0008063984201D10B69036301234361704747
:1021B0000000014040B310B5044690F83D30F3B143
:1021C000022384F83D30214651F8040BFFF78EFFBF
:1021D000012384F8463084F83E3084F83F3084F898
:1021E000403084F8413084F8423084F8433084F839
:1021F000443084F8453084F83D30002010BD80F82C
:102200003C30FFF7DDF8DBE70120704790F83C3009
:10221000012B3BD030B4012380F83C30022380F8FE
:102220003D3003685C689D6824F070040A682243AE
:102230005A600368164A93421AD0B3F1804F17D000
:10224000A2F57C42934213D002F5806293420FD0F4
:1022500002F5806293420BD002F57842934207D098
:1022600002F57052934203D0A2F59432934204D106
:1022700025F080054A6815439D60012380F83D30B4
:10228000002380F83C30184630BC7047022070476D
:102290000000014070477047026802F10C0353E8E8
:1022A000003F23F490730C3242E800310029F3D14F
:1022B000026802F1140353E8003F23F001031432D3
:1022C00042E800310029F3D1036B012B05D0202314
:1022D00080F83E30002303637047026802F10C036C
:1022E00053E8003F23F010030C3242E8003100298C
:1022F000F3D1ECE790F83D30DBB2212B01D0022086
:1023000070478368B3F5805F17D0036A5A1C026276
:102310001A7803685A60C38C9BB2013B9BB2C3849A
:102320004BB90268D36823F08003D3600268D36896
:1023300043F04003D360002070470369002BE4D1D1
:10234000036A1B880268C3F308035360036A0233FD
:102350000362E0E770B504460268136923F4405352
:10236000C1680B43136183680269134342691343D5
:10237000C2691A430168CB6823F4164323F00C03A7
:102380001343CB600268536923F4407381690B43A4
:1023900053610368344A934206D002F58062934247
:1023A00002D0FFF7C1FD01E0FFF7CEFDE369B3F511
:1023B000004F2AD00026051846EB06012D1846EBE3
:1023C0000101CB0043EA5573EA00154619466368DC
:1023D0009A009B0F281846EB0101FDF711FF234DD2
:1023E000A5FB00325109642303FB11031B013233A7
:1023F000A5FB03235B0903F0F00202EB011203F0DB
:102400000F03216813448B6070BD0026051846EB4E
:1024100006012D1846EB0101CB0043EA5573EA0093
:102420001546194662683346921846EB030328188E
:1024300046EB0101FDF7E4FE0C4DA5FB003251090E
:10244000642303FB1103DB003233A5FB03235B0989
:102450005A0002F4F87202EB011203F0070321683C
:1024600013448B60D0E700BF001001401F85EB5183
:1024700058B310B5044690F83D300BB3242384F8CC
:102480003D302268D36823F40053D3602046FFF721
:1024900061FF2268136923F4904313612268536932
:1024A00023F02A0353612268D36843F40053D360B6
:1024B00000202064202384F83D3084F83E3010BD95
:1024C00080F83C30FEF7B8FFD8E70120704770472E
:1024D00008B50168CA6822F04002CA60202280F86C
:1024E0003D20FFF7F4FF002008BD7047704708B596
:1024F000806B0023C385C384FFF7F8FF08BD7047D6
:1025000090F83E30DBB2222B67D18368B3F5805F51
:102510004DD0826AB3F5805F04D0002B54D103699B
:10252000002B51D103685B681370836A01338362A7
:10253000C38D9BB2013B9BB2C385002B4FD100B52D
:1025400083B00268D36823F02003D3600268D368A5
:1025500023F48073D3600268536923F0010353614D
:10256000202380F83E30036B012B33D1002303631B
:10257000026802F10C0353E8003F23F010030C3211
:1025800042E800310029F3D103681A6812F0100FF5
:1025900006D0002201921A6801925B680193019BA8
:1025A000818DFFF7ACFF002003B05DF804FB0269EA
:1025B000002AAED1826A03685B68C3F30803138004
:1025C000836A02338362B3E703685B6803F07F03C7
:1025D0001370AAE7FFF789FFE5E7022070470020A4
:1025E0007047000030B583B0044602681368D068B5
:1025F000516913F00F0505D113F0200F02D010F030
:10260000200F19D12DB111F0010119D110F4907FD3
:1026100016D1216B01297DD013F0800F03D010F06B
:10262000800F40F0158113F0400F03D010F0400FE1
:1026300040F0128103B030BD2046FFF761FFF9E79B
:1026400013F0010F06D010F4807F03D0226C42F00B
:102650000102226413F0040F04D019B1226C42F07D
:102660000202226413F0020F04D019B1226C42F06E
:102670000402226413F0080F07D010F0200F00D1DD
:1026800019B1226C42F008022264226C002AD1D0D7
:1026900013F0200F02D010F0200F29D123685B69BE
:1026A00003F04003226C12F0080F00D163B3204600
:1026B000FFF7F2FD23685B6913F0400F20D022681A
:1026C00002F1140353E8003F23F04003143242E8C0
:1026D00000310029F3D1A36B73B1614A1A65A06B75
:1026E000FFF706F80028A5D0A06B036D9847A1E777
:1026F0002046FFF705FFD1E72046FFF7F7FE99E7F1
:102700002046FFF7F3FE95E72046FFF7EFFE002394
:1027100023648FE713F0100F3FF47EAF10F0100F1B
:102720003FF47AAF00230193136801935368019338
:10273000019B536913F0400F50D0A26B13685B6884
:102740009BB2002B3FF476AFA18D99427FF672AF1A
:10275000E385D369B3F5807F37D0226802F10C039B
:1027600053E8003F23F480730C3242E80031002923
:10277000F3D1226802F1140353E8003F23F0010370
:10278000143242E800310029F3D1226802F1140327
:1027900053E8003F23F04003143242E8003100299F
:1027A000F3D1202384F83E3000232363226802F112
:1027B0000C0353E8003F23F010030C3242E80031D1
:1027C0000029F3D1A06BFEF749FFA18DE38D9BB2E9
:1027D000C91A89B22046FFF792FE2BE7A18DE38D3F
:1027E0009BB2C91A89B2E38D9BB2002B3FF422AF92
:1027F00000293FF41FAF226802F10C0353E8003FA9
:1028000023F490730C3242E800300028F3D12268A0
:1028100002F1140353E8003F23F00103143242E8AD
:1028200000300028F3D1202384F83E3000232363B6
:10283000226802F10C0353E8003F23F010030C322E
:1028400042E800300028F3D12046FFF758FEF1E6B9
:102850002046FFF74FFDEDE62046FFF739FEE9E69B
:10286000EF240008DFF834D00D480E490E4A00234B
:1028700002E0D458C4500433C4188C42F9D30B4A34
:102880000B4C002301E013600432A242FBD3FEF79D
:102890006BFD00F017F8FEF7CDFC7047000002203A
:1028A00000000020B8090020947A0008B809002030
:1028B000C40A0020FEE70000014B1868704700BF03
:1028C0000C00002070B50D4E0D4D761BB61006D0D5
:1028D000002455F8043B01349847A642F9D1094E2B
:1028E000094D761B04F06AFFB61006D0002455F897
:1028F000043B01349847A642F9D170BD887A00089C
:10290000887A0008907A0008887A0008F0B4860770
:1029100046D0541E002A3CD0CAB2034601E0013C16
:1029200037D303F8012B9D07F9D1032C2AD9CDB257
:1029300045EA05250F2C45EA054534D9A4F11002D6
:1029400022F00F0C03F120071609674403F110026F
:1029500042E9045542E902551032BA42F8D1721CDC
:1029600014F00C0F03EB021204F00F0613D0331F08
:1029700023F003030433134442F8045B9342FBD176
:1029800006F003042CB1CAB21C4403F8012B9C428C
:10299000FBD1F0BC704734461346002CF3D1F8E766
:1029A00014460346C1E71A462646E0E70FB400B5D1
:1029B000074983B004AB086853F8042B816801937E
:1029C00000F008F803B05DF804EB04B0704700BFF6
:1029D0000C0000202DE9F04FD5B01C468B46174661
:1029E000814603F015F903680D9418461693FDF718
:1029F00087FE1590B9F1000F04D0D9F83830002BBC
:102A000000F0FD81DBF8643013F0010FBBF90C30EE
:102A10009AB202D19E0540F1B48695040AD4DBF83F
:102A2000642043F4005322F40051ABF80C309AB206
:102A3000CBF86410100740F1CA80DBF81030002B8F
:102A400000F0C58002F01A030A2B00F0CE800023AC
:102A5000CDE92933CDE91833CDE91A331193179312
:102A600008932BAB289398463B78CDF82CB00021E7
:102A70000022CDE91212002B00F071813C4604E0E7
:102A800014F8013F002B00F0C780252BF8D1E51B7F
:102A900040F0C5802378002B00F06181002309936A
:102AA0008DF883300693661C4FF0FF3364780793EC
:102AB0002B254FF0200A0136A4F120035A2B00F2F7
:102AC000CC80DFE813F06B02CA00CA006502CA00BE
:102AD000CA00CA006A00CA00CA0003021402CA007F
:102AE0000E024B02CA0045025B005B005B005B000C
:102AF0005B005B005B005B005B00CA00CA00CA00B1
:102B0000CA00CA00CA00CA005501CA00A601830251
:102B1000550155015501CA00CA00CA00CA007D020C
:102B2000CA00CA00DB02CA00CA00CA00B401CA0057
:102B30001802CA00CA000408CA00CA00CA00CA00B3
:102B4000CA00CA00CA00CA005501CA00A601DA01BB
:102B5000550155015501F002DA01A001CA007402C5
:102B6000CA000D030108F902A001CA00B4018200E5
:102B7000FD07CA00CA00D507CA008200A4F13003CD
:102B8000002216F8014B02EB820203EB4202A4F191
:102B90003003092BF5D909928EE7484603F038F83F
:102BA00043681A931846FDF7ABFD034648461C469A
:102BB0001B9303F02DF88268189234B1189B23B14F
:102BC000189B1B78002B41F0BA80347873E7594684
:102BD000484601F003FD002841F04983BBF80C2072
:102BE00002F01A030A2B7FF432AFBBF90E30002B30
:102BF000FFF62DAFDBF86430DB0702D4960541F118
:102C00006C8123463A465946484601F0A5FC089097
:102C1000089855B0BDE8F08FE51B00F0A080DDE915
:102C2000293201332A44072BCDE92932C8F8007034
:102C3000C8F8045006DC08F10808089A23782A44EA
:102C4000089228E70B9928AA484603F061FF00285C
:102C500041F025840DF1AC08EFE70E96002C7ED0F4
:102C600000231A464FF0010A8DF8EC408DF88330AE
:102C70000C9207920F9214921092CDF828A03BAFBD
:102C8000069B069913F0020318BF0AF1020A11F01D
:102C9000840B05D10999A1EB0A06002E00F3DA8313
:102CA0002A9D72B1299A013201350DF1830001216B
:102CB000072ACDE92925C8E9000100F30C8408F1B1
:102CC00008086BB1299B0133023521A90222072B89
:102CD000CDE92935C8E9001200F30C8408F1080891
:102CE000BBF1800F00F08F82079B0A9A9E1A002E7C
:102CF00000F3CE82069BDE0500F12982299B0A9A09
:102D0000C8F8007001331544072B2A95C8F8042031
:102D1000299300F3338308F10808069B5E0705D565
:102D2000099BA3EB0A04002C00F3F183DDE90832D0
:102D30005245ACBF9B1853440893002D40F0E182EC
:102D4000002329930C9B1BB10C99484602F038FED6
:102D50000DF1AC080E9F3B78002B7FF48FAE2A9BC1
:102D6000DDF82CB0002B40F0E08700232993D7E258
:102D70000D9B0E96073323F007031946F1E8022353
:102D8000CDE91223DDE912AB2BF000450D91B84BD4
:102D9000504629464FF0FF32FEF776F9002840F002
:102DA0004E85B34B504629464FF0FF32FEF74EF9A1
:102DB000002840F044850022002350465946FEF783
:102DC0003BF9002841F084819DF88320A94FAA4B4C
:102DD000069800214FF0030A20F080000C91069025
:102DE000472CC8BF1F46CDF828A007910F9114911A
:102DF0001091002A3FF444AF0AF1010A40E7484627
:102E000002F042FDFEE5069B347843F02003069372
:102E100051E60D9B0E9653F8042B8DF8EC20002103
:102E20000A464FF0010A0D938DF8831020E70D9D9F
:102E30000E9655F8047B00268DF88360002F00F075
:102E40007286079A1346013300F01B8731463846D5
:102E5000FDF756FB0C90002801F0C3810C9B0796F0
:102E6000DA1B0A92334622EAE27A0D959DF8832016
:102E70000C930F9314931093BBE7069B0E969D063D
:102E800040F1AD800D9B073323F007031946F1E8AD
:102E900002230D9192469B46002A73F10003C0F273
:102EA000AF80079B013300F09D85069B23F08005D2
:102EB0005AEA0B0340F0BD82079B002B40F0C08212
:102EC0000695002307930A9354AFC3E00D9B53F874
:102ED000042B0992002A80F25D84099A0D935242D4
:102EE0000992069B347843F004030693E3E53478B3
:102EF0008DF88350DFE5069B0E9643F01005AF0674
:102F000040F11A840D9B073323F00703F3E802AB6B
:102F10000D93012300228DF88320079A1146013179
:102F20007DD025F0800106915AEA0B0140F07D82A8
:102F3000002A40F07486002BC3D115F001030A93D8
:102F400000F05B8430238DF84F310DF24F1781E094
:102F5000069B347843F080030693ACE5324612F8C2
:102F6000014B2A2C01F0D382A4F13003092B164621
:102F700098BF002201F2738116F8014B02EB820226
:102F800003EB4202A4F13003092BF5D9079293E534
:102F9000069B347843F0010306938CE59DF883305B
:102FA000002B7FF412AE34788DF883A083E534785B
:102FB000069B6C2C00F0B08543F0100306937AE575
:102FC000069B347843F00803069374E5069B0E963F
:102FD00043F010030693069B9D063FF553AF069BF7
:102FE000D80640F11C840D9B53F8042B0D934FEA37
:102FF000E27B5B46002A73F100039246BFF651AFB5
:10300000079A069DDAF1000A11464FF02D036BEB8B
:103010004B0B01318DF883304FF0010381D1012B2F
:1030200000F00782022B54AF72D117984FEA1A139F
:103030000AF00F0143EA0B734FEA1B129A469346BC
:10304000435C07F8013D5AEA0B03EFD154ABDB1B9D
:1030500006950A93002307990C930F9314931093EA
:103060000A9B9DF883208B42B8BF0B469A46C0E668
:10307000FFFFEF7FFC77000800780008069B0E96A4
:1030800043F010030693069B990640F165830D9B60
:10309000073323F00703F3E802AB0D93069B23F4F9
:1030A0008065002336E73478069B682C00F02D8578
:1030B00043F040030693FEE40D9B0E9647F6300165
:1030C00053F8042BADF8841006990D93B14B179368
:1030D00041F0020592464FF0000B0223782419E7D5
:1030E000069B0E969E0600F17184069BDD0600F19C
:1030F0009B85069B5C0600F13886069B980540F18F
:1031000093850D9B089953F8042B0D93117021E6BC
:103110004FEADA0242EA4B724FEADB010AF0070398
:103120008B46924630335AEA0B013A4607F8013D86
:10313000EED1E9078AD5302B88D03023023A07F840
:10314000013C54AB9B1A06950A93174682E7652CFF
:1031500040F32681DDE9120100220023FDF762FF22
:10316000002800F00E82299B8B4AC8F8002001330A
:1031700001350122072BCDE92935C8F8042000F3D9
:10318000308508F10808229B119A934280F2F4825C
:10319000299B169AC8F80020159AC8F80420013314
:1031A0001544072B2A95299300F3A28408F10808F7
:1031B000119B5C1E002C7FF7B0AD102C299BDFF813
:1031C000DCB140F31F855F461026DDF82CB005E02A
:1031D00008F10808103C102C40F31385013310351A
:1031E000072BCDE92935C8E90076F1DD28AA594633
:1031F000484603F08DFC002840F08D80DDE929353C
:103200000DF1AC08E6E7099BA3EB0A06002E7FF759
:103210006BAD102E299ADFF884B126DD29461023E4
:1032200025465C46DDF82CB004E0103E102E08F177
:10323000080817DD01321031072ACDE92921C8E934
:103240000043F2DD28AA5946484603F061FC0028F5
:1032500061D1103E102EDDE929210DF1AC084FF0AF
:103260001003E7DCA3462C460D4601323544072AFD
:10327000CDE92925C8F800B0C8F8046000F32B8414
:10328000079B0A9A9E1A002E08F108087FF732ADB4
:10329000102E299ADFF804B125DD29461023254692
:1032A0005C46DDF82CB004E0103E102E08F1080852
:1032B00016DD01321031072ACDE92921C8E9004382
:1032C000F2DD28AA5946484603F022FC18BB103EFE
:1032D000102EDDE929210DF1AC084FF01003E8DCD8
:1032E000A3462C460D4601323544072ACDE929254F
:1032F000C8F800B0C8F8046000F3118208F10808AB
:10330000F8E40B9928AA484603F002FC00283FF491
:1033100017ADDDF82CB00C9911B1484602F050FB06
:10332000DBF8643013F0010FBBF80C3002D19C05C0
:1033300040F12E84580600F1A687089855B0BDE8E4
:10334000F08F299B1699C8F800101599C8F8041039
:1033500001330D44072B2A95299300F3AF8508F11B
:103360000808002AC0F29E87119A01331544072BE2
:10337000CDE92935C8E900727FF7CDAC0B9928AAB1
:10338000484603F0C5FB0028C3D12A9D0DF1AC08C7
:10339000C3E400BF0C7800083C78000850780008AF
:1033A000119B299C012B40F37281013401350123CB
:1033B000072CCDE92945C8F80070C8F8043000F39F
:1033C000CD8308F10808159B169A01341D44072C7B
:1033D000CDE92945C8E9002300F3CD8308F10808A9
:1033E0000023DDE912010022FDF71CFE119B0028DD
:1033F00040F06A81013B013401371D44072CCDE9BF
:103400002945C8F80070C8F8043000F3508108F16D
:103410000808199A0134154424AB072CCDE9294535
:10342000C8E900327FF777ACA8E7012B069D7FF44F
:10343000F9ADBBF1000F08BFBAF10A0F80F0DA82D4
:103440000AF1300A01238DF84FA106950A930DF277
:103450004F17FFE5102EDDE929212ADD1C933B469D
:1034600040464F46A04610250B9C994604E0103E6E
:10347000102E00F1080016DD0132C84B1031072A6A
:10348000CDE92921C0E90035F1DD28AA21463846D9
:1034900003F03EFB002840F09483103E102EDDE93F
:1034A00029212BA8E8DC44461C9B80464846B946A7
:1034B00007460132B948C8F800007518072ACDE957
:1034C0002925C8F8046000F36B839DF8832008F178
:1034D0000808FFF7E6BB0B991C9328AA484603F09F
:1034E00017FB00287FF415AF2A9D1C9B0DF1AC083B
:1034F000FFF7E7BB0B9928AA484603F009FB002811
:103500007FF407AF2A9D0DF1AC08FFF7E9BB102C43
:10351000299B1FDD0B9F102604E0103C102C08F1A6
:10352000080817DD01339D4A1035072BCDE92935F1
:10353000C8E90026F1DD28AA3946484603F0E8FA32
:10354000002840F05B83103C102CDDE929350DF19B
:10355000AC08E7DC0133914AC8F800202544072B6A
:10356000CDE92935C8F804407FF7E0AB0B9928AACC
:10357000484603F0CDFA00287FF4CBAE2A9DFFF732
:10358000D5BB229A002A40F30D81DDE91032934227
:10359000A8BF1346002B1C460DDD299BC8F8007000
:1035A00001332544072B2A95C8F80440299300F3DA
:1035B000B48508F10808109B002CA8BF1B1B002B2A
:1035C0001C4600F33983109B3B449B46069B5905E0
:1035D00000F1E284229B119A934203DB069AD20700
:1035E00040F1B483299A1699C8F800101599C8F8C3
:1035F000041001320D44072A2A95299200F3C3854D
:1036000008F10808119ABC18A4EB0B04D31A9C42C9
:10361000A8BF1C46002C0DDD299AC8F800B0013265
:103620002544072A2A95C8F80440299200F3078602
:1036300008F10808002CACBF1C1B1C46002C7FF7AF
:103640006CAB102C299BDFF858B140F3DB825F464E
:103650001026DDF82CB005E008F10808103C102C0D
:1036600040F3CF8201331035072BCDE92935C8E966
:103670000076F1DD28AA5946484603F049FA0028A9
:103680007FF449AEDDE929350DF1AC08E6E7069B8C
:10369000DB073FF58AAE013401350123072CCDE964
:1036A0002945C8F80070C8F804307FF7B0AE0B9910
:1036B00028AA484603F02CFA00287FF42AAEDDE958
:1036C00029450DF1AC08A4E65E1E002E7FF7A1AEE1
:1036D000102EDFF8CCB040F3E082CDF81CA010270C
:1036E000CA46DDF82C9005E008F10808103E102EBF
:1036F00040F3D08201341035072CCDE92945C8E9C3
:1037000000B7F1DD28AA4946504603F001FA002827
:1037100040F0A985DDE929450DF1AC08E6E70B99F4
:1037200028AA484603F0F4F900287FF4F2AD2A9D58
:103730000DF1AC08FFF7DEBA0D9AEE0652F8041B45
:103740000D924FF001035DD4680658D51FFA81FA37
:103750004FF0000BFFF7DEBB069BDA0657D4069B43
:103760005B0640F1B2820D9B53F8042B0D931FFAB8
:1037700082FA4FF0000B91E4069BD8077FF5CDAAA3
:1037800006E5DBF8580002F04BFABBF90C309AB2B0
:10379000FFF743B934780D93FFF78DB940780008EF
:1037A00050780008299BC349C8F80010013301353F
:1037B0000121072BCDE92935C8F8041000F39684C0
:1037C00008F10808002A7FF4BCAD069B119A03F0AB
:1037D000010313433FF4A1AA299B169AC8F80020BD
:1037E000159AC8F8042001331544072B2A9529930C
:1037F00000F3648308F10808B6E554AF2AE4AA058B
:1038000000F1AD828A464FF0000BFFF783BB0D9BA2
:1038100053F8042B0D9392464FF0000B3EE4069BA9
:10382000590640F161820D9B53F8042B0D930FFA5A
:1038300082FA4FEAEA7B52465B46FFF72DBBDDE991
:1038400012010B460246FDF71FFC0146002840F01E
:103850001686612C00F08A85412C00F09582079B2A
:1038600024F020065A1C0A9600F0AA85472E00F084
:103870008285DDE91212069BB2F1000A43F48073DF
:1038800010934FF00003C0F2CA851C930C938B4633
:10389000462E5A46534600F08484452E40F0578405
:1038A000079926A84D1C23A90490039122A8022160
:1038B000019502900091484600F096FF07460544A6
:1038C000069B0F93109B06935846514600220023F7
:1038D000FDF7A8FB002800F041832B46DB1B11936A
:1038E0000A9B472B00F00C830A9B462B00F0868432
:1038F000229B1093109B0A9A013B412A229300F0CD
:103900008885E2B20021002BB8BF109B8DF8902073
:10391000BABFC3F101032D222B22092B8DF8912070
:1039200040F368850DF19F0EDFF890C175468CFB62
:103930000321DA17C2EBA10202EB8201A3EB4101E2
:103940001E463031632E284605F8011C134605F14A
:10395000FF35ECDC3033DAB2831E9E45294605F88C
:10396000012C40F2DF850DF1920301E011F8012BEB
:1039700003F8012B8E45F9D10DF1A1030DF192024F
:103980001B1A134424AA9B1A1993119B199A012BF1
:103990001A440A9240F395850A9B159A13440A9398
:1039A0000F9B23F4806600230F93149310930A9BBC
:1039B00046F48072069223EAE37A1C9B002B40F0C7
:1039C000C6829DF883200793FFF713BA0D9B53F827
:1039D000041B0D93089BDD171A462B46C1E90023F3
:1039E000FFF7B8B9BBF1000F08BFBAF10A0F069D87
:1039F000FFF426AD05F4806600230694CDF82890E8
:103A00003446C14654AFA8461E46189D09E0FCF74F
:103A1000F7FBBBF1000F08BFBAF10A0F1FD38246B4
:103A20008B460A22002350465946FCF7E9FB944690
:103A30000CF1300C07F801CC504659460A220023FD
:103A40000136013F002CE2D095F800C06645DED17A
:103A5000FF2EDCD09B4508BF924580F08B821895E5
:103A6000069C11964546C846DDF82890FFF7EEBA49
:103A7000114B0E961793069B9F0664D50D9B07333B
:103A800023F00703F3E802AB0D93069AD0070AD59B
:103A90005AEA0B0307D0302342F002028DF885402A
:103AA00006928DF88430069B23F480650223FFF78D
:103AB00031BA00BF3C7800080C780008676666667B
:103AC000069D0E96FFF71BBA0E96FFF7DCBAAB4BBE
:103AD0000E961793CFE70B9928AA484603F018F8DB
:103AE00000287FF416AC2A9D0DF1AC08FFF7FCB856
:103AF0000B9928AA484603F00BF800287FF409AC7C
:103B00002A9D0DF1AC08FFF753BB43F400737478A2
:103B100006930136FEF7CFBF43F020037478069377
:103B20000136FEF7C8BF079B0F97062B28BF062359
:103B30000797149710970C973A469A46904F0D9511
:103B40000A93FFF756B9069BDE063ED50D9B53F848
:103B5000042B0D9392464FF0000B96E70B9928AA81
:103B6000484602F0D5FF00287FF4D3ABDDE92945B4
:103B70000DF1AC0827E40B9928AA484602F0C8FFCB
:103B800000287FF4C6ABDDE929450DF1AC0827E438
:103B9000DBF8580002F046F8BBF80C30FFF7CABB60
:103BA0000B991C9328AA484602F0B2FF00287FF424
:103BB000B0AB9DF883202A9D1C9B0DF1AC08FFF74C
:103BC00070B8B946A346FFF7A6BB069B5D066ED547
:103BD0000D9B53F8042B0D931FFA82FA4FF0000B44
:103BE00053E70B9928AA484602F092FF00287FF479
:103BF00090AB2A9D0DF1AC08FFF7C5BABB46FFF7A5
:103C00008ABBBB4601332544072BC8F800B0CDE979
:103C10002935C8F804407FF77EA8FFF7AFBB012B1A
:103C2000069D7FF4FFA90BE40D9B089953F8042B24
:103C300011600D93FFF78EB8102C299BDFF844B16B
:103C400065DD2A4610265D46DDF82CB004E008F15B
:103C50000808103C102C58DD01331032072BCDE939
:103C60002932C8E90056F2DD28AA5946484602F032
:103C70004FFF00287FF44FABDDE929320DF1AC088E
:103C8000E7E73846FCF73CFD3346079602460A90C4
:103C9000FFF7E9B8D146DDF81CA001343544072C04
:103CA000CDE92945C8E900B67FF7B1ABFFE4069B33
:103CB00013F4007F0D9B53F8042B0D9314BF5FFA90
:103CC00082FA92464FF0000BDFE6069B13F4007F6A
:103CD0000D9B53F8042B0D9314BF5FFA82FA9246A2
:103CE0004FF0000BFFF7DAB9069B13F4007F0D9B32
:103CF00053F8042B3FF47AA94FFA82FA4FEAEA7B91
:103D00000D9352465B46FFF7C7B8AB4615460133E5
:103D10002544072BCDE92935C8F800B0C8F8044080
:103D200000F3E18008F108084DE4484628AA594606
:103D300002F0EEFE00283FF418A8FFF7F1BA069B48
:103D4000347843F480630693FEF7B5BE119ABC182D
:103D5000A4EB0B04D31A9C42A8BF1C466AE45FFA8A
:103D600081FA4FF0000BFFF7D5B80D9B089953F877
:103D7000042B0D931180FEF7EDBF00BF20780008E3
:103D8000347800085078000830238DF884305823A8
:103D90008DF88530069B43F00205079B632B00F3EB
:103DA000BF8200230C933BAFDDE91212069B069500
:103DB00043F4817324F02006B2F1000A10930A96AE
:103DC000C0F2A38100238B461C93612C00F0FC827F
:103DD000412C7FF45DAD5846514622AA02F098FD71
:103DE00000224FF07F53FCF7B5FE002200238246ED
:103DF0008B46FDF717F908B101232293B74B0F93B8
:103E0000079B1D94CDE91E973E465D1E0F9FCDF882
:103E1000508003E0FDF706F9013D08BBB04B0022DE
:103E200050465946FCF796FE89468046FDF742F912
:103E30000446FCF725FE02460B4640464946FCF781
:103E4000D1FC17F804C0B5F1FF3FB046824606F832
:103E500001CB8B464FF000024FF00003A946D9D1A9
:103E6000A04BCDF84480002250465946DDF85080E2
:103E70001F9F14944D46DDE91D49FDF7FBF800280E
:103E800040F05882974B504659460022FDF7CAF839
:103E900018B1149BDB0700F14D82002D2B4606DB89
:103EA00001333344302206F8012BB342FBD1069B89
:103EB0000F93F31B1193109B069311E50B9928AAFE
:103EC000484602F025FE00287FF423AADDE92935C3
:103ED000229A0DF1AC08FFF744BADBF8580001F064
:103EE000A1FEFEF78EBE0B9928AA484602F010FEEE
:103EF00000287FF40EAA2A9D0DF1AC08FFF763BBE2
:103F0000229B1093D81C02DB079A934204DD023CEB
:103F100024F020030A93EDE4DDE910318B42C0F276
:103F200084810F9AD20740F1B782159A13440A93FD
:103F30000F9B5B0503D5109B002B00F372820A9B3D
:103F4000672423EAE37A00230F93149335E52D22A7
:103F500000238DF883200793FEF74EBF269BAB42CC
:103F6000BFF4BCAC30215A1C26921970269B9D428E
:103F7000F9D8B3E41B9B1A99FF1A1A46384602F087
:103F800057FD6B7803B101350A220023504659468C
:103F90000026FCF735F942E5119BCDF828A04246F2
:103FA000DDF850801097FB1807935E46DDF86CA093
:103FB000DDF82CB0189F0F9B2946B8F1000F2ED0CA
:103FC000002B6AD1013F08F1FF38299B1A98106035
:103FD00001335144072B2A91C2F804A0299360DCD5
:103FE000083207983B78841B9C42A8BF1C46002CD3
:103FF0000ADD299B166001332144072B2A91546066
:10400000299359DC3B780832002CACBF1C1B1C46A2
:10401000002C14DC1E440F9BB8F1000FD0D1002BF4
:104020003BD11897DDE91073FB189E42B346DDF8CB
:1040300028A090460D4628BF9B46FFF7CBBA102C10
:1040400029981DDD102504E0103C102C02F1080217
:1040500016DD0130244B10310728CDE92901C2E9D2
:104060000035F1DD28AA5946484602F051FD0028E6
:104070007FF451A9103C102CDDE929012BAAE8DCC2
:104080000130194B136021440728CDE92901546000
:1040900050DC3B7808321E44BDE70F9B013B0F9379
:1040A00093E728AA5946484602F032FD00287FF4DB
:1040B00032A92A992BAA94E728AA5946484602F021
:1040C00027FD00287FF427A93B782A992BAA9BE794
:1040D0002D228DF88320FEF779BE00BF20780008DE
:1040E000000030400000E03F507800080B9928AAFB
:1040F000484602F00DFD00287FF40BA9229A2A9D64
:104100000DF1AC08FFF75EBB0C90DDE9122303F163
:10411000004A2D2393461C9357E60B9928AA48463C
:1041200002F0F6FC00287FF4F4A82A9D0DF1AC08FB
:10413000FFF741BA28AA5946484602F0E9FC002890
:104140007FF4E9A83B782A992BAA1E4463E726A8A6
:1041500023A9079D0490039122A8022102900195B2
:104160000091484600F040FB472E074627D1069BAA
:10417000DA0700F18D80109A069247220F930A9277
:10418000269BFFF7ABBB0B9928AA484602F0C0FC60
:1041900000287FF4BEA8229B2A9D0DF1AC08FFF7F2
:1041A00031BA26A823A9079D0490039122A80321D0
:1041B000029001950091484600F016FB0746079BC8
:1041C000462E07EB03057FF47BAB3B78302B00F0EA
:1041D0006A81229B069A0F921D44109B0693FFF75B
:1041E00073BBDDF81CA09DF88320CDF828A00790B4
:1041F0000D950F9014901090FEF7FBBD229A0F9B27
:104200001092002A40F36E81079903F001030B43DB
:1042100040F02E81109B0A9366240F9B590500F1F4
:1042200001810A9B23EAE37A8DE6119B159A9A187D
:10423000109B0A92002B40F34A816724EDE70B990B
:1042400028AA484602F064FC00287FF462A8229B5A
:10425000119A2A9DD31A0DF1AC08FFF7EBB9002390
:104260000793FEF729BCCB46D146FFF754B8DBF8DD
:104270006430D90707D4BBF80C309A0503D4DBF8B7
:10428000580001F0CFFC4FF0FF330893FFF755B80B
:10429000069B0F93079BFD18109B069347230A93D9
:1042A000FFF712BB54421032DFF8A8B221DA2A46D7
:1042B00010265D46DDF82CB004E008F10808103C3B
:1042C000102C14DD01331032072BCDE92932C8E957
:1042D0000056F2DD28AA5946484602F019FC00288B
:1042E0007FF419A8DDE929320DF1AC08E7E7AB4608
:1042F000154601332544072BCDE92935C8E900B41B
:104300007FF778AA0B9928AA484602F001FC0028FA
:104310007EF4FFAFDDE929350DF1AC08FFF724B8D5
:10432000591C484601F0FAFC0746002800F0FE80C0
:104330000C9039E5119B26930F9B16F8012CD97B25
:104340008A42334609D1302003F8010C269B5A1EBD
:10435000269213F8012C9142F6D0392A0BBF0F9AFE
:104360000132927AD2B203F8012CA0E530238DF805
:10437000843078230CE5002B08BF01230793069BAC
:1043800043F480731093139BB3F1000AFFF6BCAEA5
:10439000079E019626AD23A8CDE90305DDE9125657
:1043A00022AA0223029200932A46334648468B46AD
:1043B0000C9100F019FACDF870B00746AB46D6E67E
:1043C00006230793FFF755BA5846514622AA02F032
:1043D0009FFA00224FF07F53FCF7BCFB0022002322
:1043E00082468B46FCF71EFE08B101232293564BF2
:1043F0000F9305E5002972D130228DF892200DF13E
:104400009302303302F8013B24ABD31A1993FFF720
:10441000BCBA04F10F02D2B20121FFF774BA0C93B7
:1044200073E6672418990B78FF2B00F0898000252C
:10443000109A284603E001300131FF2B08D0934247
:1044400006DAD21A4B78002BF5D10B780135F4E758
:104450001891109214900F950F9A149B0A99134477
:104460001B9A02FB03130A9323EAE37AFFF7A5BA28
:10447000159B02EB030A51440A916624CDE6139B77
:10448000324F002BB4BF2D229DF88320304BB8BF94
:104490008DF88320FEF79CBC109B0A9348E5DDF85D
:1044A0002CB0FEF73DBF5846514600220023FCF7D2
:1044B000B9FD00287FF48DAE079BC3F10103229361
:1044C00088E60F9BD9077FF56BAAFFF765BAC3F1A2
:1044D00001031A440A9222EAE27A672433E50DF1D5
:1044E00092028EE703F00106079B56EA030205D10C
:1044F0004FF0010ACDF828A0662424E5159A02F1B0
:10450000010A53440A9323EAE37A66241BE50D9BD0
:10451000747853F8041B0D93164641EAE172079232
:10452000FEF7C9BA02231993FFF72FBADDF82CB0B2
:10453000BBF80C3043F04003ABF80C30FEF7F0BE94
:1045400000230F93149387E70C7800080478000881
:104550000878000850780008F0B50C46ADF26C4DB4
:104560008989B4F80EC0ADF80EC01F46636E19936A
:104570001546636AE269079221F002011AAA06460B
:10458000ADF80C10099300214FF4806316A8069132
:10459000009204920293059301F03EFB2A463B46AB
:1045A00069463046FEF716FA051E07DB30466946B7
:1045B00001F00EF9002818BF4FF0FF35BDF80C30A0
:1045C0005B0603D5A38943F04003A381169801F04D
:1045D00025FB28460DF26C4DF0BD00BF38B5324BBF
:1045E0001B6805460C4613B19A6B002A3CD0B4F9FF
:1045F0000C3018079AB20CD52169A9B112F001004C
:1046000022D0606900254042A061A56011B300205E
:1046100038BDD10640D552072AD4216943F008039A
:10462000A3819AB20029E9D102F42070B0F5007F8D
:10463000E4D02846214601F025FBB4F90C3021696D
:104640009AB212F00100DCD1950758BF6069A060F2
:104650000029DCD1120658BF0846D9D543F04003E3
:10466000A3814FF0FF3038BD184601F00DF9BEE7C9
:10467000216B51B104F14002914204D0284601F06F
:104680009FF9B4F90C3000222263216921600022D5
:10469000626023F02403C1E743F0400309222A604B
:1046A0004FF0FF30A38138BD0C000020024B13B146
:1046B000024800F005B8704700000000F5580008F7
:1046C000002301461A46184602F042BA2DE9F04F7F
:1046D00003690E69B34283B0C0F28280013E01F1EA
:1046E000140700F1140A57F826305AF8262001332F
:1046F0008346B00000909A420AEB860007EB8609D9
:104700000190B2FBF3F836D300252A46BC4650464A
:104710005CF8044B03681FFA84FE08FB0E554FEA51
:10472000154E240C08FB04E4ADB2551BA2B2C2EB3B
:10473000134215FA83F302EB23429BB243EA02438E
:10474000E14540F8043B4FEA14454FEA2242DFD2EC
:10475000009B5AF8033073B9019B043B9A4504D37C
:1047600007E09A4506F1FF3603D253F80429002AE0
:10477000F7D0CBF81060584601F0BCFF00282BDBC7
:1047800008F101085046002357F8041B04688AB258
:104790009A1A0B0C12FA84F2C3EB144303EB224374
:1047A00092B242EA0342B94540F8042B4FEA234350
:1047B000EAD25AF826200AEB86036AB9043B9A45E6
:1047C00004D307E09A4506F1FF3603D253F80429D3
:1047D000002AF7D0CBF81060404603B0BDE8F08F58
:1047E000002003B0BDE8F08F2DE9F04F016C9BB0C5
:1047F00016461F46CDE90267279D044641B1426C2B
:104800004A60012393408B6001F074FD0023236410
:10481000B7F10009B4BF012300232B60764BBCBF66
:1048200029F00049CDF80C9033EA090300F0AA8082
:10483000DDE90223CDE908231046194600220023B2
:10484000FCF7F0FB824670B1269A01231360289B87
:10485000002B00F0CB8269481860431E0493049833
:104860001BB0BDE8F08F18AA19ABCDE90032204685
:10487000DDE9082301F0F8FF5FEA1955804640F0B2
:104880009780DDE918B55D4405F23240202840F3F9
:104890009D83C0F1400305F2124009FA03F926FA9C
:1048A00000F049EA0000FCF7DBF80123013DA1F12B
:1048B000F8710D93524B0022FBF794FF48A3D3E904
:1048C0000023FCF747F948A3D3E90023FBF78CFF4B
:1048D000064628460F46FCF7D3F845A3D3E9002344
:1048E000FCF738F902460B4630463946FBF77CFFA9
:1048F00006460F46FCF7DEFB0022824600233046C8
:104900003946FCF799FB002840F06382BAF1160F94
:1049100000F251823B4B03EBCA03D3E90023DDE9EC
:104920000801FCF789FB002872D00023ABEB0505DA
:104930000C936B1E0AF1FF3A059300F144820023A9
:104940000793BAF1000F6BDA079BCDF818A0A3EB21
:104950000A030793249B092BCAF1000B4FF0000AAE
:1049600067D8052B40F33083043B24930025249B18
:10497000023B032B00F27886DFE813F04C04490475
:1049800040042304269A42F20F73C9F313091360FB
:1049900059EA06031CD1289B002B00F05C861A4BB9
:1049A00004930833289A049813601BB0BDE8F08F75
:1049B000DDE90812C2F31303084643F07F51DDF826
:1049C00060B0CDF834A0A5F2FF3541F4401171E795
:1049D000289B002B40F0E4830C4B04933FE700BF7F
:1049E00061436F63A787D23FB3C8608B288AC63FF5
:1049F000FB799F501344D33F0000F07F3D780008BF
:104A00000000F83F98780008647800086078000893
:104A1000ABEB05056B1E059300F1A4840C90079089
:104A2000059B5344CDE9053A249B092B4FF0000B1D
:104A300097D94FF0FF360125CDE90A65002324936D
:104A40002593002161641296204601F02DFC0E2E64
:104A50000490206400F2F680002D00F0F3800699A7
:104A6000002940F35384BB4B01F00F0203EBC20358
:104A7000D3E90023CDE90E23CA054FEA211540F101
:104A8000EA83B54BDDE90801D3E90823FCF78CF98B
:104A9000CDE9100105F00F054FF0030985B1DDE9FF
:104AA0000E01AD4EEB0705D5D6E90023FCF752F811
:104AB00009F101096D1006F10806F3D1CDE90E01E7
:104AC000DDE90E23DDE91001FCF76EF9CDE90E01F9
:104AD0000C9B53B1DDE90E67A04B002230463946EE
:104AE000FCF7AAFA002840F03E854846FBF7C8FFCD
:104AF000DDE90E23FCF72EF8994B0022FBF774FE3C
:104B0000A1F15073CDE9100111930A9B002B00F025
:104B1000DF83069B14930A9B13930B9B002B00F0DF
:104B2000A984139A8B4B8F4903EBC20353E90223E9
:104B30000020FCF739F9DDE91023FBF753FE0F469F
:104B40000646DDE90E01CDE91067FCF7B3FA07462A
:104B5000FBF796FF02460B46DDE90E01FBF742FE2E
:104B6000049D303702460B4605F8017BDDE9100154
:104B7000CDE90E23FCF77EFA002840F037854FF090
:104B80000009CDE916BACDF85480CA46AB46DDE936
:104B90000E89139F0E94DDE9104524E0BA454CDAE6
:104BA000FBF7D8FF704B002204460D4640464946AD
:104BB000FBF7D0FF89468046FCF77CFA0646FBF7F8
:104BC0005FFF02460B4640464946FBF70BFE303678
:104BD0000BF8016B22462B4680468946FCF72CFADF
:104BE000002840F0FF8442464B465C490020FBF71A
:104BF000F9FD22462B46FCF71FFA06465A4B0AF1EE
:104C0000010A002220462946002EC7D0149BDDF859
:104C100054800E9C049A06935D4602E0954200F093
:104C2000CB84AA4615F8013D392BF7D00133DBB20E
:104C30002B70069B01330693A8E1DDE916BADDF877
:104C400054800E9C199B002BC0F29280069A0E2A6B
:104C500000F38E803F4B03EBC203D3E900AB259BEF
:104C6000002B1ADA0A9B002B17DC40F0B6843F4B6E
:104C7000002250465946FBF76DFF02460B46DDE920
:104C80000801FCF7E3F9DDF828904D46002800F014
:104C90005082259B049FDE4353E2DDE908565246CD
:104CA0005B4628463146FCF77FF8FCF703FA0746D7
:104CB0008146FBF7E5FE52465B46FBF74BFF0B4692
:104CC000024631462846FBF78DFD3B460A9F049D70
:104CD0003033012F05F8013B00F07E834FF00109CE
:104CE000CDF808802E46059417E0FCF75DF8FCF738
:104CF000E1F98046FBF7C4FE52465B46FBF72AFF0C
:104D00000B46024629462046FBF76CFD08F13003AE
:104D1000B94506F8013B00F05A83134B0022FBF71C
:104D200019FF0022002304460D46FCF77BF9844658
:104D300009F1010952465B4620462946BCF1000FA5
:104D4000D3D0DDF80880059C3546069B01330693D9
:104D5000AA461BE198780008707800080000F03F30
:104D600000001C400000E03F000024400000144010
:104D70000B9A002A40D0249A012A40F38A820A9B87
:104D80005F1EBB4580F26482A7EB0B039A44BB46CF
:104D900000270A9B002BC0F24D83059A1146079A03
:104DA000194416461A44059107920121204601F044
:104DB0003BFB054623E00123ABEB05050C936B1E83
:104DC00005937FF5BCADC5F101030793002305935F
:104DD000B7E55046FBF754FE32463B46FCF722F956
:104DE00000287FF493AD0AF1FF3A8FE5C54B049399
:104DF00004981BB0BDE8F08F079E0B9D5F46002E08
:104E00000CDD059A002A09DD0799B2421346A8BFB6
:104E10003346C91AF61AD31A07910593BBF1000F4E
:104E20001AD00B9B002B00F0B481002F10DD294617
:104E30003A46204601F0A4FB42460146054620467C
:104E400001F0FCFA414603462046984601F052FA2A
:104E5000BBEB070240F09E810121204601F0E4FAFD
:104E6000BAF1000F814600F3B680249B012B40F37A
:104E70009C8100270120BAF1000F40F0B780059A0D
:104E8000104410F01F0000F09680C0F12003042BA6
:104E900040F3E583079BC0F11C00034402440793E1
:104EA00006440592079B002B05DD41461A46204625
:104EB00001F0B6FB8046059B002B05DD49461A46EE
:104EC000204601F0ADFB81460C9B002B40F0468153
:104ED0000A9B002B40F318810B9B002B40F098801D
:104EE000069B01330693049FDDF828A0012603E00A
:104EF00001F00AFA0136804649464046FFF7E6FBD4
:104F0000564500F1300C07F801CB41464FF0000345
:104F10004FF00A022046EBDB0A9BCDF808C0002BBD
:104F2000C8BF9B46049BD8BF4FF0010B9B44002693
:104F300041460122204601F073FB4946804601F0BC
:104F4000D9FB002840F393811BF8013C049A0BF134
:104F5000FF3B04E05A4500F095811BF8013D392BD9
:104F60000BF1010AF6D001338BF800304946204698
:104F700001F0C0F955B12EB1AE4203D03146204602
:104F800001F0B8F92946204601F0B4F9414620461F
:104F900001F0B0F900238AF80030269B1A46069BE0
:104FA0001360289B002B3FF45AAC0498C3F800A070
:104FB0001BB0BDE8F08F1C20079B03440793059BA3
:104FC0000344064405936DE70125D0E4C0F12000B9
:104FD00006FA00F067E401465246204601F0D0FA96
:104FE000249B012B814640F3BF810027D9F8103064
:104FF00009EB8303186901F0C7F9C0F120003EE70F
:10500000249B022B00F31E83129BCDF818A00A9359
:10501000069B01330693002E00F31381002F40F00E
:10502000F5812F46029B2499049E03F001020C9205
:105030000A430B920A9A731E1A4408924946404644
:10504000FFF744FB29468346404601F053FB49469F
:1050500082463A46204601F06BFB0BF13003029387
:10506000C3680146002B41D10790404601F042FB46
:1050700007990590204601F03DF9059B1BB90B9A55
:10508000002A00F0C482BAF1000FC0F28481249A91
:1050900042EA0A0A0C9A52EA0A0200F07C81002BCA
:1050A00000F3CC81029B3370089B06F1010AB342E6
:1050B000D34600F0CF81414600230A22204601F06A
:1050C00023F9BD42804629464FF000034FF00A0203
:1050D000204610D001F018F93946054600230A226F
:1050E000204601F011F956460746A7E7204601F091
:1050F00001F90123C7E701F007F9564605460746BF
:105100009CE700BF3C780008249B022B40F385807D
:105110000A9B002B7FF4BDAD49460522204601F0D5
:10512000F3F801468146404601F0E4FA00287FF793
:10513000B0AD049F069E3B46312203F8012B013699
:1051400004934946204601F0D5F8731CDDF810A001
:1051500006930497002D7FF415AF17E749464046A4
:1051600001F0C8FA0028BFF6B3AE414600230A2278
:10517000204601F0C9F8069B03F1FF3A0B9B8046DD
:10518000002B40F04C82129B002B40F355820A9377
:10519000A9E65A464146204601F0F2F980465BE610
:1051A000AE4B04930333FFF7FDBBDDE90212002988
:1051B0007FF45FAEC2F31303002B00F0DF80029F89
:1051C00058E601230B93259B069A1344129301334F
:1051D000012B1E460A93B8BF01260021172E6164D9
:1051E0000ADD012204235B0003F11400B0421146E2
:1051F00002F10102F7D961640A9E25E401230B93B1
:10520000259B002B2EDD12930A931E46E5E7002313
:105210000B93D8E700230B93F2E70B9B002B7FF453
:10522000F7AE49464046FFF751FA069ADDF810B04E
:1052300000F1300301320BF8013B02930692002685
:1052400076E629463246204601F0EAF90546E5E6CB
:10525000ABEB07079DE5DDE908234FF00209CDE937
:1052600010231BE4012625960A96FFF7EABB03D11B
:10527000029BDB073FF568AEDA461BF8013D302B99
:10528000FAD073E6069A01320692049A312313701B
:105290006CE60D9A002A00F05A8103F23343059A16
:1052A0001A440592079A16461A4407925F467CE50F
:1052B0004846FBF7E5FBDDE90E23FBF74BFC684BAB
:1052C0000022FBF791FAA1F15073CDE9100111937F
:1052D000644B0022DDE90E01FBF784FADDE91023BF
:1052E00005460E46FBF7C6FE8146002840F0718158
:1052F000DDE91001024601F1004328463146FBF783
:105300009BFE00283FF49EAC4D46C2E400F0238192
:10531000069B5D42544B05F00F0203EBC203D3E939
:105320000023DDE90801FBF715FC2D11CDE90E0185
:1053300000F08D814D4E00234FF00209EF0706D596
:10534000D6E90023FBF706FC09F1010901236D10E2
:1053500006F10806F2D1002B3FF4BAABCDE90E01FD
:10536000FFF7B6BB0C902EE5DDE9021200297FF4B1
:105370003CAEC2F31303002B7FF437AE3C4F174013
:10538000002F3FF477AD079B01330793059B013353
:10539000059301276EE5002B12DD414601222046D0
:1053A00001F03EF94946804601F0A4F9002840F397
:1053B0002781029B392B00F005810BF13103029309
:1053C000B246029B0AF8013B2E463D46CEE5C14659
:1053D000059CDDF80880354602460B46FBF704FACB
:1053E00052465B4606460F46FBF744FE60B95246FE
:1053F0005B4630463946FBF715FE00283FF4A5AC66
:105400005FEAC9717FF5A1AC049A0AE46968204695
:1054100000F04AFF2B6902339A00064605F10C01A1
:105420000C30FBF7BDF831460122204601F0F8F8B8
:105430000746F7E5079B0A9A9E1AB6E4029B392BAA
:1054400000F0C080029BB24601332E460AF8013BB1
:105450003D468BE52E463D466AE500BF6078000874
:1054600000001C4000001440987800087078000884
:105470000000F07F139B854901EBC30151E9020154
:10548000DDE91023FBF766FBDDE90E5602460B460D
:1054900028463146CDE90E23FBF70CFE0746FBF705
:1054A000EFFA0B46024631462846049DFBF79AF96F
:1054B00007F1300305F8013B139B012B06460F460D
:1054C00022D0139B049ACDF840B013449946704BF8
:1054D000002230463946FBF73DFB0F460646FBF7F8
:1054E000E9FD8346FBF7CCFA0BF1300B02460B4685
:1054F00030463946FBF776F905F801BB4D450646BF
:105500000F46E4D1DDF840B0624B0022DDE90E0128
:10551000FBF76AF932463B46FBF78EFD00286AD15D
:10552000DDE90E235B490020FBF75CF932463B4680
:10553000FBF7A0FD00283FF485ABAA46013D1AF811
:10554000013C302BF9D0149B013306931EE5189BC8
:10555000C3F13603A3E6DDE908234FF00209CDE9E4
:105560000E23FFF7B5BA0A9B002B3FF4A1AE129DA4
:10557000002D7FF767AB464B002230463946FBF7DC
:10558000E9FA06460F4609F10100CDE90E67FBF77F
:1055900077FA32463B46FBF7DDFA3F4B0022FBF73A
:1055A00023F9A1F15073CDE910011193069B013B42
:1055B000CDE91353FFF7B1BA069B013306933123AC
:1055C000FFF736BBB34639232E460BF8013B3D4669
:1055D000BCE44FF000094D46ABE54FF000094D46E5
:1055E000FFF757BBDDF854800E9C5D46149B0133DA
:1055F0000693AA46CAE4149B049A0693FFF711BBCC
:105600007FF4DEAE029BDA077FF5DAAED1E6029BCD
:10561000392BD7D0BAF1000F3FF7CFAED0E62946ED
:1056200000230A22204600F06FFE129B002B054645
:105630007FF7E6AC0A93EEE4249B022B02DCCDF864
:1056400018A0EEE5129BCDF818A00A9360E54FF084
:105650000209FFF73DBA114B0493FFF700B93FF47D
:1056600021ACC0F13C00A7E4002565642946204632
:1056700000F01AFE4FF0FF3312930A9301230490B7
:10568000259520640B93FFF7DDBA00BF98780008DA
:10569000000024400000E03F00001C406478000847
:1056A000B1F90C202DE9F0410D461107804647D491
:1056B0006B6842F40062002BAA815DDDAC6A002CAD
:1056C00057D00023D8F80060C8F8003093B212F425
:1056D000805255D10123E9694046A047431C66D05A
:1056E000AB89AC6A5F0705D56A682B6B801A0BB172
:1056F000EB6BC01AE969024600234046A047411CF3
:1057000040D1D8F80030002B3CD01D2B01D0162BF7
:1057100055D1AB892A692A6023F400630022AB814A
:105720006A60296BC8F8006019B305F1400399421B
:1057300002D0404600F044F900202863BDE8F08123
:105740002F69B7B193B22E682F609A070CBF6B69AF
:105750000023F61BAB600AE06C6AE96933463A46FF
:105760004046A047041EA6EB0406274417DD002E82
:10577000F2DC0020BDE8F081EB6B002B9EDCF8E74B
:10578000286DAFE7B5F90C302A692A6023F400636D
:105790000022AB81DB046A60C3D52865C1E7AB8911
:1057A00043F04003AB814FF0FF30BDE8F081D8F803
:1057B0000030002B94D01D2B06D0162B04D0AB89C3
:1057C00043F04003AB81D5E7C8F80060D1E700BFE4
:1057D00038B50C46054608B1836BA3B1B4F90C008B
:1057E000B8B1636EDB0701D4810515D52846214683
:1057F000FFF756FF636EDA07054602D4A3899B05BF
:105800000ED5284638BD00F03FF8B4F90C0000284A
:10581000E7D10546284638BDA06D00F001FAE5E75E
:10582000A06D00F0FFF9284638BD00BF10B5002379
:105830000446C0E90033C0E904338181C28183603A
:1058400043668361194608225C30FDF75FF807481C
:105850000749084A084BE362C4E90740C4E9091252
:1058600004F15800BDE8104000F0D6B9A569000861
:10587000C9690008096A0008296A0008014900F09E
:10588000A3B900BF616C000810B50446114800F0D0
:10589000C7F9A26BC2B904F53B730F48C4F8E02204
:1058A0000321C4E9B913E06304216068FFF7BEFF78
:1058B000A06801220921FFF7B9FFE0680222122146
:1058C000FFF7B4FF0123A363BDE81040014800F0D7
:1058D000A9B900BFA80A00207D580008014800F0BF
:1058E0009FB900BFBC0A0020014800F09BB900BF6F
:1058F000BC0A002038B5084B084D5B1B9C1007D034
:10590000043B1D44013C55F804399847002CF9D15B
:10591000BDE8384001F058BF947A0008907A00083A
:10592000F8B5244F0C46064600F0B2FCBB685D6833
:10593000C4F57E610F3125F003054B1923F47F6315
:1059400023F00F03A3F58054B4F5805F07DB00213B
:10595000304601F015F8BB682B44984204D030461D
:1059600000F09CFC0020F8BD6142304601F008F8D0
:1059700001300DD0104AB96813682D1B45F00105A0
:1059800030461B1B4D60136000F088FC0120F8BD01
:105990000021304600F0F4FFBA68831A0F2BDEDDD9
:1059A000064C0549246843F00103001B536008605E
:1059B000D5E700BF3C040020680A0020440800200E
:1059C00000295ED0F8B50C46064600F061FC54F89C
:1059D000043CDFF8F0C123F00101A4F108004218F3
:1059E000DCF808705568974225F0030500F08880C0
:1059F000DF07556033D454F8087CC01B0CF1080451
:105A00008368A342394469D05719D0F80CE07F6805
:105A1000C3F80CE0CEF80830FB0740F1968041F067
:105A2000010343601160B1F5007F33D2CB08DCF88D
:105A3000044001334A090121914021430CEBC30288
:105A40005CF83340CCF80410083AC0E902424CF844
:105A50003300E0603046BDE8F84000F01FBC531949
:105A60005B68DF070ED429440CF108049368A34255
:105A700073D0D468DC6041F00102A3604260415001
:105A8000D1E7704741F00103B1F5007F44F8043CD1
:105A90001160CBD3B1F5206F4FEA51234AD28B0965
:105AA00003F13905ED0003F138025CF805300CEB29
:105AB0000504083C9C4259D05A6822F003028A42ED
:105AC00002D99B689C42F7D1DC68C0E90234A0602F
:105AD000D8603046BDE8F84000F0E0BB53195B6881
:105AE000DB0766D4D2E90223294441F00104D360E4
:105AF0009A60446041503046BDE8F84000F0CEBBAB
:105B0000DB07294407D454F8083CC01A1944D0E9EB
