:020000040800F2
:1000000038050020A1010008EB1A000819180008A3
:10001000E91A0008F10200086D2100080000000044
:10002000000000000000000000000000EF1A0008BF
:10003000F302000800000000ED1A0008F11A0008A1
:10004000BB010008BB010008BB010008BB010008A0
:10005000BB010008BB010008F5020008BB01000855
:10006000BB010008BB010008BB010008BB01000880
:10007000BB010008BB010008BB010008BB01000870
:10008000BB010008BB010008BB010008BB01000860
:10009000BB010008BB010008BB010008BB01000850
:1000A000BB010008BB010008BB010008BB01000840
:1000B000BB0100089D1B0008BB010008BB01000834
:1000C000BB010008BB010008BB010008BB01000820
:1000D000BB01000861210008BB010008BB0100084A
:1000E000BB010008BB010008BB010008BB01000800
:1000F000BB010008BB010008BB010008BB010008F0
:10010000BB010008BB010008BB010008BB010008DF
:10011000BB010008BB010008BB010008A91B0008C7
:10012000BB010008BB010008BB010008BB010008BF
:10013000BB010008BB010008BB010008BB010008AF
:10014000BB010008BB010008BB010008BB0100089F
:10015000BB010008BB010008BB010008BB0100088F
:10016000BB010008BB010008BB010008BB0100087F
:10017000BB010008BB010008BB0100080000000033
:10018000BB010008BB010008DFF810D000F092F8B6
:10019000004800473D230008AFF3008038050020E9
:1001A0000648804706480047FEE7FEE7FEE7FEE711
:1001B000FEE7FEE7FEE7FEE7FEE7FEE78D1B000831
:1001C000890100082DE9F05F0546002092469B4614
:1001D00088460646814640241BE02846414647465D
:1001E000224600F057F853465A46C01A914110D3A0
:1001F00011461846224600F03EF82D1A67EB01081A
:100200004F4622460120002100F035F817EB000987
:100210004E41201EA4F10104DFDC484631462A4647
:100220004346BDE8F09FD2B201E000F8012B491E21
:10023000FBD270470022F6E710B513460A46044683
:100240001946FFF7F0FF204610BD30B50B460146BA
:1002500000202022012409E021FA02F59D4205D365
:1002600003FA02F5491B04FA02F52844151EA2F10F
:100270000102F1DC30BD202A04DB203A00FA02F151
:10028000002070479140C2F1200320FA03F3194384
:1002900090407047202A04DB203A21FA02F0002126
:1002A000704721FA02F3D040C2F120029140084386
:1002B00019467047064C074D06E0E06840F0010320
:1002C00094E8070098471034AC42F6D3FFF760FF7C
:1002D000A0230008C0230008044B4FF4807108B12C
:1002E000012200E00022184600F095B900140240F7
:1002F000FEE77047012000F085B872B6FEE72DE9F1
:10030000F0410446876D00F08BF9064694F83500FD
:100310000025022806D08020606584F83450012032
:10032000BDE8F0812068016821F0160101602068B5
:10033000416921F080014161206C08B9A06C20B1B5
:100340002068016821F0080101602068016821F03F
:10035000010101600CE000F063F9801B052807D95A
:1003600020206065032084F8350084F83450D7E7F6
:1003700020680068C007EED194F85C103F208840E8
:10038000B860012084F8350084F834500020C7E7B5
:1003900090F83510022903D0802141650120704773
:1003A000052180F835100068016821F00101016025
:1003B0000020704770B5044600F032F90546601C15
:1003C00002D004480078044400F02AF9401BA042FF
:1003D000FAD370BD0800002010B501280CD10A2006
:1003E000FFF7E8FF0121054800F010F9002803D1CC
:1003F00003480178C943017010BD000000000240AD
:1004000000000020044910B50A68024202D00860CA
:10041000FFF7E2FF10BD0000143C01402DE9F84F4A
:10042000DFF8BCA1002201250AF1040B03264FF0DE
:100430000F090BF1040E00BF0B6805FA02F423400C
:10044000A34270D10F7907F00307012F01D0022FCB
:1004500016D187684FEA420806FA08FC27EA0C071B
:10046000D1F80CC00CFA08FC4CEA070CC0F808C024
:100470004768A7430C79C4F3001494403C4344609C
:100480000C79E443A4070AD0C4684FEA420C06FA88
:100490000CF7BC438F6807FA0CF72743C7600C7949
:1004A00004F00304022C12D1D40800EB840CDCF815
:1004B00020405707FF0E09FA07F824EA0804D1F88C
:1004C000108008FA07F848EA0408CCF8208004688D
:1004D0004FEA420C06FA0CF7BC430F7907F003070A
:1004E00007FA0CF7274307604C6814F4403F70D0BC
:1004F0003C4C276847F480472760246822F00307B4
:1005000004F480440094384C07EB040CDCF80848F1
:1005100097074FEA177809FA08F7BC43334FB842F8
:1005200002D1002724E054E0314FB84201D1012725
:100530001EE0304FB84201D1022719E02E4FB842D9
:1005400001D1032714E02D4FB84201D104270FE059
:100550002B4FB84201D105270AE02A4FB84201D1FA
:10056000062705E0284FB84201D1072700E00827F9
:1005700007FA08F72743CCF80878DAF8004057461E
:10058000D1F804C09C435FEACC3C00D51C433C60DE
:10059000DBF800405F46D1F804C09C435FEA8C3C26
:1005A00000D51C433C60DEF800407746D1F804C01B
:1005B0009C435FEACC2C00D51C433C60084F0C37B1
:1005C0003C68D1F804C09C435FEA8C2C00D51C43E6
:1005D0003C60521C102AFFF42FAFBDE8F88F0000DA
:1005E000003C01404438024000300140000002401D
:1005F0000004024000080240000C024000100240CB
:100600000014024000180240001C0240006908402B
:1006100000D0012070470AB1816170470904FBE7EF
:100620000148806870470000080000200248816887
:100630000278114481607047080000200B4810B513
:10064000016841F400710160016841F4806101605A
:10065000016841F480710160032000F071F800200E
:1006600000F006F800F024F8002010BD003C024025
:1006700070B50D4D04464FF47A712878B1FBF0F057
:100680000A490968B1FBF0F000F00CFB48B9102CE6
:1006900007D200222146501E00F032F800206C6084
:1006A00070BD012070BD0000080000201400002073
:1006B0000B4882B0016841F480410160006800F499
:1006C000804000900648001F016841F080510160A1
:1006D000006800F080500090052002B000F030B8B3
:1006E00044380240002809DB00F01F02012191403C
:1006F0004009800000F1E020C0F8001170470000C0
:10070000F0B40E4B1B680C46C3F30223C3F107057C
:10071000042D00D90425191D072901D2002300E06A
:10072000DB1E012606FA05F1491E214099409E4034
:10073000761E16403143F0BC01F02ABD0CED00E0FE
:10074000064900F0070208684FF6FF03184040EA28
:100750000220034A10430860704700000CED00E0DF
:100760000000FA052DE9F0470E46050065D0DFF8D8
:100770001481D8F80000F7B200F00700B04207D2A9
:1007800088F80070D8F8000000F00700B04254D19B
:1007900028683D4C810712D5400703D5206840F4F6
:1007A000E05020602878000703D5206840F46040BE
:1007B00020602068A96820F0F000084320602878B5
:1007C000C0072DD0304968680839012812D00228A6
:1007D00013D0032811D00968890700292DDA216870
:1007E00021F0030101432160FFF71AFF814641F226
:1007F000883A0EE009688903EFE709688901ECE7A8
:10080000FFF70EFFA0EB0901514502D90320BDE817
:10081000F0872068696800F00C00B0EB810FEFD121
:10082000D8F80010404601F00701B14207D907701F
:10083000006800F00700B04201D00120E7E7287807
:10084000400705D52068E96820F4E050084320609F
:100850002878000706D52068296920F4604040EA1E
:10086000C100206000F038F82168084AC1F3031184
:10087000515CC8400649086006480068FFF7F8FE6A
:100880000020C4E7003C02400838024088230008EA
:10089000140000200C000020044805490068096885
:1008A000044AC1F38221515CC84070471400002003
:1008B0000838024098230008044805490068096880
:1008C000044AC1F34231515CC84070471400002013
:1008D0000838024098230008154810B5006810F049
:1008E0000C02144813D04110042A0FD0082A0ED14C
:1008F0000F4C241F2268236802F03F025B0207D5D9
:100900002068C0F38810A0FB010106E0084610BD76
:100910002168C1F38811A1FB00010023FFF752FCFD
:100920002168C1F30141491C4900B0FBF1F010BD41
:10093000083802400024F4002DE9F84F04006ED07E
:100940002078DFF84C93C007A9F104054AD009F1DB
:1009500004000168C1F38101012908D00068C0F3D7
:10096000810002280AD1D9F80000400206D5286883
:10097000800337D560680028E1D033E06068B0F5C7
:10098000803F10D0B0F5A02F286810D020F4803020
:100990002860286820F4802028606068A8B1FFF7EC
:1009A0003FFE06460DE0286840F48030F4E740F44E
:1009B00080202860F7E700BFFFF732FE801B642825
:1009C00073D828688003F7D50CE0FFF729FE0646A8
:1009D00005E000BFFFF724FE801B6428F0D82868DC
:1009E0008003F7D42078DFF8AC8280074FF0000A4C
:1009F0003ED5A748001D016811F00C0F08D0006813
:100A0000C0F3810002280BD1D9F80000400207D4BE
:100A10002868800716D5E068012800D112E033E18C
:100A2000E068B8B10120C8F80000FFF7F9FD0646FC
:100A300005E000BFFFF7F4FD801B0228C0D828683E
:100A40008007F7D52868216920F0F80040EAC10046
:100A500028600DE0C8F800A0FFF7E2FD064604E0BC
:100A6000FFF7DEFD801B02281FD828688007F7D417
:100A70002078000722D5864F87486169703771B1A9
:100A800001210160FFF7CCFD064604E0FFF7C8FD39
:100A9000801B022809D838688007F7D50EE0C0F817
:100AA00000A0FFF7BDFD064605E082E0FFF7B8FDB8
:100AB000801B02287DD838688007F7D4207840074B
:100AC00068D5DFF8CCB100270BF13C0BDBF8000058
:100AD000C0000BD4DBF8001041F08051CBF80010BF
:100AE000DBF80000012700F0805000906B4E30686A
:100AF000C00510D4306840F480703060FFF790FD7E
:100B0000009005E0FFF78CFD0099401A022850D8AC
:100B10003068C005F6D55E4EA0686C3601280FD04F
:100B20000528306810D020F001003060306820F0D7
:100B300004003060A068B8B1FFF772FD00900FE0CC
:100B4000306840F00100F4E740F004003060F7E75F
:100B5000FFF766FD0099411A41F28830814266D85C
:100B600030688007F4D50EE0FFF75AFD009007E0EB
:100B7000FFF756FD0099411A41F28830814256D85C
:100B800030688007F4D42FB1DBF8001021F08051D9
:100B9000CBF80010A069C8B33D49091D0968C1F32D
:100BA000810102294AD00228504607D0C8F86000C7
:100BB00000E03CE0FFF734FD04463BE04746C8F860
:100BC0006000FFF72DFD064605E000BFFFF728FD9A
:100BD000801B02282BD828688001F7D4D4E90701AC
:100BE0000843A16A2E4A490802EB0141626A41EAC0
:100BF0008211084394F82C1040EA0161C9F80010F2
:100C000001203866FFF70CFD044606E03EE000BF19
:100C1000FFF706FD001B022809D828688001F7D5D8
:100C200034E000BFFFF7FCFC001B022802D90320C0
:100C3000BDE8F88F28688001F4D427E00128F7D0B8
:100C4000D9F80000E26900F4800191421CD1226AC7
:100C500000F03F01914217D147F6C071626A01402E
:100C6000B1EB821F10D1A26A4FF0FF3300F4403184
:100C700003EB5202B1EB024F06D194F82C1000F0B6
:100C80007060B0EB016F01D00120D1E70020CFE709
:100C90000438024000004742800E47420070004086
:100CA0000000FFFF10B5401EB0F1807F01D301208E
:100CB00010BD4FF0E02460610F21601701F068FA69
:100CC0000020A06107202061002010BD7047704700
:100CD00070B590F83C20012A32D0012480F83C40C5
:100CE000022280F83D2003685A689D6822F0700651
:100CF0000A6832435A60134B02689A4214D0B2F128
:100D0000804F11D0104B9A420ED0104B9A420BD00C
:100D10000F4B9A4208D00F4B9A4205D00E4B9A4285
:100D200002D00E4B9A4204D1496825F08003194342
:100D3000916080F83D40002180F83C10084670BD6D
:100D4000022070BD00000140000400400008004087
:100D5000000C004000040140004001400018004029
:100D600010B5040003D094F83D0010B107E0012055
:100D700010BD002084F83C00204600F01FF802203F
:100D800084F83D00211D206800F014FF012084F844
:100D9000460084F83E0084F83F0084F8400084F860
:100DA000410084F8420084F8430084F8440084F849
:100DB000450084F83D00002010BD000008B51A4A27
:100DC00001681A4891420ED1016841F002010160A8
:100DD0000068022200F00200009011461D20FFF77B
:100DE0008FFC1D2010E0124A914211D1016841F0A0
:100DF000200101600068022200F020000090012123
:100E00003720FFF77DFC3720BDE80840FFF76ABCBC
:100E1000084A914207D1016841F48071016000687D
:100E200000F48070009008BD00040040403802408B
:100E3000001400400020004090F83D10012901D02E
:100E400001207047022180F83D100168CA6842F015
:100E50000102CA6000681149884214D0B0F1804F85
:100E600011D00F4988420ED00E4988420BD00E494E
:100E7000884208D00D49884205D00D49884202D0E9
:100E80000C49884204D1816801F00701062903D08A
:100E9000016841F00101016000207047000001403D
:100EA0000004004000080040000C00400004014025
:100EB000004001400018004070B5044690F83C0026
:100EC0000025012817D0012684F83C60022084F810
:100ED0003D002068826822F0770222F47F4282601F
:100EE0000868502838D00DDC20284FD005DC90B39E
:100EF000102811D14AE0022070BD302846D0402889
:100F00000AD13BE060282FD070280DD0B0F5805F6B
:100F100003D0B0F5005F12D0012584F83D600020B9
:100F200084F83C00284670BDCB68D1E901212068D7
:100F300000F0B1FE2068816841F0770109E0CB68DC
:100F4000D1E90121206800F0A6FE2068816841F403
:100F500080418160E1E719E0CA684968206800F0D3
:100F60006FFF5021206806E0CA684968206800F0D9
:100F700078FF6021206800F098FECEE7CA684968D3
:100F8000206800F05DFF40212068F4E722680146F8
:100F90001046F0E7704770B50446006801694FF0ED
:100FA0000005C943890715D4C168C943890711D40D
:100FB000E91E0161012020772068806980072046B2
:100FC00002D0FFF7E7FF04E000F0C2F8204600F08F
:100FD00054F9257720680169C943490717D4C168C6
:100FE000C943490713D46FF004010161022020773F
:100FF0002068806910F4407F204602D0FFF7CAFFC6
:1010000004E000F0A5F8204600F037F925772068C5
:101010000169C943090716D4C168C943090712D435
:101020006FF008010161042020772068C069800703
:10103000204602D0FFF7AEFF04E000F089F820461A
:1010400000F01BF9257720680169C943C90617D448
:10105000C168C943C90613D46FF0100101610820AB
:1010600020772068C06910F4407F204602D0FFF747
:1010700091FF04E000F06CF8204600F0FEF82577C0
:1010800020680169C943C90708D1C168C943C907B4
:1010900004D1891E0161204600F054F920680169DD
:1010A000C943090609D4C168C943090605D46FF0CC
:1010B000800101612046FFF709FE20680169C943EC
:1010C000490609D4C168C943490605D46FF04001F7
:1010D0000161204600F06CF920680169C943890666
:1010E0000BD4C168C943890607D46FF020010161A0
:1010F0002046BDE87040FFF7EABD70BD10B586B070
:10110000044614216846FFF795F80E492068884286
:1011100016D10D48016841F02001016000680121ED
:1011200000F0200005904FF4007000900220CDE9FF
:10113000010103900920049069460448FFF76EF905
:1011400006B010BD002000403038024000140240BC
:10115000704770B5044690F83C0000260D46012803
:101160000FD0012084F83C006AB1042A1DD0082A5F
:101170002FD00C2A3FD00126002084F83C003046B6
:1011800070BD022070BD206800F098FD2068816964
:1011900041F0080181612068816921F004018161C9
:1011A000206881692A69114311E0206800F0B6FDCA
:1011B0002068816941F4006181612068816921F4BE
:1011C00080618161206881692A6941EA0221816127
:1011D000D2E7206800F0D8FD2068C16941F008011D
:1011E000C1612068C16921F00401C1612068C16941
:1011F0002A69114311E0206800F0FAFD2068C169F6
:1012000041F40061C1612068C16921F48061C1615C
:101210002068C1692A6941EA0221C161ACE710B5C1
:10122000040003D094F83D0010B107E0012010BD88
:10123000002084F83C00204600F01EF8022084F8CC
:101240003D00211D206800F0B5FC012084F8460017
:1012500084F83E0084F83F0084F8400084F84100A0
:1012600084F8420084F8430084F8440084F8450080
:1012700084F83D00002010BD7047704710B504464B
:10128000022249B104290ED0082913D094F8410054
:10129000012816D0012010BD94F83E000128F9D194
:1012A00084F83E200FE094F83F000128F2D184F842
:1012B0003F2008E094F840000128EBD184F840205A
:1012C00001E084F841200122206800F0D7FC164993
:1012D0002068164A884201D0904203D1436C43F4FF
:1012E000004343642068884213D0B0F1804F10D08F
:1012F0000F4988420DD00F4988420AD00E498842D2
:1013000007D0904205D00D49884202D00C4988424E
:1013100004D1816801F00701062903D0016841F07A
:1013200001010160002010BD0000014000040140E7
:101330000004004000080040000C00400040014054
:101340000018004070B505461448154C854219D167
:1013500020780028608806D0193880B26080C828BC
:1013600009D2002006E0193080B26080B0F5E27F3B
:1013700001D30120207061880AA000F0F9FE0B491A
:101380006088486305484830854205D1607800F0A0
:1013900081FA6078C043607070BD00001C000020BE
:1013A0000200002025640A0900000000002000401F
:1013B0007047704770470000F8B501680446086838
:1013C000CA684B6910F00F0F4FF0000559D003F0B9
:1013D000010602F49077374365D0C10705D0D105E7
:1013E00003D5216C41F001012164410705D5D907DE
:1013F00003D0216C41F002012164810705D5D90792
:1014000003D0216C41F004012164010707D502F0EB
:101410002001314303D0216C41F008012164216C8B
:1014200000293AD0800604D5900602D5204600F067
:1014300059FD20684069216CC0F38010090700D471
:1014400060B3204600F027FD20684069400621D5A2
:101450002068143050E8001F21F0400140E80012DD
:10146000002AF5D1A06BA8B16C490165A06BFEF70D
:101470008FFF002811D0A06B016D01B0BDE8F040D6
:10148000084783060FD593060DD52046BDE8F840E2
:1014900000F028BD2046FFF78DFFF8BD2046FFF77E
:1014A00089FF2564F8BD266B2023012E79D1C6065D
:1014B00077D5D60675D50868486800904869400613
:1014C00040D5A16B086840680004000CEAD0A28DEA
:1014D0008242E7D9E085C869B0F5807F2DD02068C9
:1014E0000C3050E8001F21F4807140E80012002AFF
:1014F000F5D12068143050E8001F21F0010140E8C8
:101500000012002AF5D12068143050E8001F21F0A5
:10151000400140E80012002AF5D184F83E302563EE
:1015200020680C3050E8001F21F0100140E8001244
:10153000002AF5D1A06BFEF7E2FEA08DE18D401AE6
:1015400081B229E0A08DE18D401A81B2E08D0028A2
:10155000A8D00029A6D020680C3050E8002F22F433
:10156000907240E80026002EF5D12068143050E833
:10157000002F22F0010240E80026002EF5D184F869
:101580003E30256320680C3050E8002F22F0100216
:1015900040E80023002BF5D12046FFF70AFFF8BDF5
:1015A000FFE705062BD5150629D594F83D0021281F
:1015B000F5D1A068B0F5805F01D12069B0B1206A93
:1015C000411C2162216800784860E08C401E0004C4
:1015D000000CE084E3D12068C16821F08001C16083
:1015E0002068C16841F04001C160D8E7206A0088E6
:1015F000C0F308004860206A801C2062E5E74006CE
:10160000CDD55006CBD5CA68204622F04002CA602C
:1016100084F83D3000F0FFF8C1E70000871E0008A5
:1016200070B5040004D094F83D00002510B106E028
:10163000012070BD84F83C50204600F023F824209F
:1016400084F83D002068C16821F40051C160204643
:1016500000F0A8FC2068016921F490410161206834
:10166000416921F02A0141612068C16841F40051BB
:10167000C1602564202084F83D0084F83E000020ED
:1016800070BD0000F0B587B0044614216846FEF72F
:10169000D1FD1C492068884232D11B4800250168D1
:1016A00041F010010160006800F01000059016483C
:1016B0001438016841F0010101600068022400F063
:1016C000010005904FF400708DE8310003200726DB
:1016D000CDE903060D4F69463846FEF79FFE6002CE
:1016E0008DE83100CDE9034669463846FEF796FE9F
:1016F000032211462520FFF703F82520FEF7F2FF0D
:1017000007B0F0BD00100140443802400000024024
:1017100090F83E30202B0ED159B152B190F83C30A8
:10172000012B08D0012380F83C300023036300F034
:10173000BFBC0120704702207047000010B54FF475
:101740007A7301220549064800F00CF8BDE8104004
:10175000012202490248FFF7DBBF0000060000201B
:10176000F40000202DE9F843044690F83D001F46A0
:1017700016460D4620284CD1C5B1BEB194F83C00A8
:10178000012846D0012084F83C004FF00008C4F83E
:101790004080212084F83D00FEF742FFA684814668
:1017A000E684A068B0F5805F03D004E00120BDE8C6
:1017B000F883206928B12E465FF0000584F83C804C
:1017C0000EE00026FAE78021204600F08CFCA0B94C
:1017D000AEB116F8010B21684860E08C401EE08431
:1017E000E08C4B464FF0000200970028EBD14FF001
:1017F0004001204600F077FC30B10320D7E735F8F0
:10180000020BC0F30800E6E7202084F83D0000202A
:10181000CDE70220CBE77047FEE7000070B51C4D16
:10182000002410212846FEF7F1FE48B10821284681
:10183000FEF7ECFE20B104212846FEF7E7FE28BBA8
:101840000A20FEF7B7FD10212846FEF7DFFE48B15B
:1018500008212846FEF7DAFE20B104212846FEF7CB
:10186000D5FE98B910212846FEF7D0FE00B9012414
:1018700008212846FEF7CAFE08B944F002040421F4
:101880002846FEF7C3FE08B944F00404204670BDA4
:1018900000100240044B4FF4806108B1002200E0C8
:1018A00001221846FEF7B7BE0014024070B586B09C
:1018B00014216846FEF7BEFC2B480024016841F065
:1018C00010010160016801F010010591016841F00B
:1018D00020010160016801F020010591016841F0DB
:1018E00080010160016801F080010591016841F00B
:1018F0000101016000681D4E00F001000590012209
:101900004FF4A0613046FEF786FE1C20CDE90004AE
:101910000124694616480294FEF780FD2002022544
:101920008DE83100694630460395FEF777FDA00249
:10193000CDE9000469463046CDE90245FEF76EFD6B
:101940004FF48810CDE90040694602950948FEF73A
:1019500065FD032202210620FEF7D2FE0620FEF7D7
:10196000C1FE06B070BD00003038024000140240D5
:10197000001002400000024010B588B01C216846EB
:10198000FEF758FC17481649002401605321C0E9AE
:10199000011440F2F311C0E9031480218161FFF7C3
:1019A000DFF908B1FEF7A9FC0E48FFF738FC08B1D3
:1019B000FEF7A3FC6020CDE90004029400226946F2
:1019C00008480494FFF7C5FB08B1FEF796FC002118
:1019D0000448FFF753FC0348FFF790FB08B010BD25
:1019E00000200040AC00002010B586B0002419484B
:1019F00000940194029403940494154905940160A1
:101A000042F2CF01C0E901144FF47A71C0E9031426
:101A100080218161FFF7A4F908B1FEF76EFC4FF455
:101A20008050009069460B48FFF746FA08B1FEF770
:101A300064FC049404A907480594FFF749F908B128
:101A4000FEF75BFC0348FFF7F7F906B010BD000096
:101A5000000400401C0000201CB500241048009425
:101A60000E490194016042F23311C0E901144FF4B0
:101A70007A71C16080218161FFF772F908B1FEF7C8
:101A80003CFC0094694606480194FFF721F908B12F
:101A9000FEF733FC0248FFF7CFF91CBD00140040ED
:101AA000640000200E4810B50C4901604FF4E1318C
:101AB0004160002181600C22C160C0E90412816193
:101AC000C161FFF7ADFD08B1FEF717FCBDE810409E
:101AD000012204490248FFF71BBE0000001001402C
:101AE000F400002006000020FEE7FEE77047704784
:101AF000FEF79CBD30B593B030216846FEF79AFBE7
:101B000014210CA8FEF796FB1E480025016841F041
:101B100080510160006800F0805011901A480168FF
:101B200041F4804101600068022400F4804011907B
:101B300001200090000401908001CDE906400820BA
:101B400008904FF4A870CDE9090404200B90684672
:101B5000FEF7F2FE08B172B6FEE70CA90F2081E88D
:101B600031004FF4A0500F904FF480501090052199
:101B70000CA8FEF7F7FD002801D072B6FEE713B0FF
:101B800030BD00004038024000700040024801684B
:101B900041F470010160704788ED00E00148FFF7F3
:101BA000FAB900001C0000200148FFF7F4B900005A
:101BB00064000020F0B50268254C264D264E274FC4
:101BC000274B4FF0804CA04209D0604507D0A84277
:101BD00005D0B04203D0B84201D0984204D122F0DF
:101BE000700E4A6842EA0E02A0421BD0604519D02E
:101BF000A84217D0B04215D0B84213D0984211D0A5
:101C0000184DA8420ED0184DA8420BD0174DA8422F
:101C100008D0174DA84205D0164DA84202D0164D47
:101C2000A84203D122F44075CA682A434D6922F0C4
:101C300080022A4302608A68C2620A688262A04205
:101C400001D0984201D10969016301214161F0BDD0
:101C5000000001400004004000080040000C00406B
:101C600000040140004001400044014000480140A0
:101C700000180040001C00400020004010B501F09A
:101C80001F030121046A99408C430462016A9A404F
:101C90001143016210BD10B5846842EA032224F4A6
:101CA0007F440A432243826010BD826822F07002A2
:101CB0000A4342F00701816070470000F0B5026AF4
:101CC00022F001020262036A42688469124E24F023
:101CD00073050C682C4323F002058B682B430D4DD4
:101CE000A84201D0B04205D123F00807CB683B439E
:101CF00023F00403A84201D0B04205D14D6922F47B
:101D0000407215438A692A4342608461496841638D
:101D10000362F0BD0000014000040140F0B5026A1A
:101D200022F010020262026A436884690D6824F49A
:101D3000E64444EA05248D6822F0200242EA0512B6
:101D40000F4D104EA84201D0B04206D1CF6822F00C
:101D5000800242EA071222F04002A84201D0B042BB
:101D600007D14D6923F4406343EA85038D6943EA53
:101D7000850343608461496881630262F0BD0000AD
:101D80000000014000040140F0B5026A22F48072B4
:101D90000262026A4368C46922F4007224F0730587
:101DA0000C68124E2C438D6842EA05220E4DA84263
:101DB00001D0B04206D1CF6822F4006242EA072285
:101DC00022F48062A84201D0B04207D14D6923F4C9
:101DD000405343EA05138D6943EA05134360C46128
:101DE0004968C1630262F0BD000001400004014087
:101DF00030B5026A22F480520262046A4268C36902
:101E00000D6823F4E64343EA05238D6824F4005467
:101E100044EA0534084DA84202D0084DA84204D136
:101E20004D6922F4804242EA85124260C3614968EA
:101E30000164046230BD0000000001400004014064
:101E400010B5036A046A24F001040462846924F072
:101E5000F00444EA021423F00A020A438461026295
:101E600010BD10B5036A23F0100303628369046A8E
:101E700023F4704343EA023224F0A00343EA011141
:101E80008261016210BD10B5806B0021C185C184E3
:101E9000FFF790FA10BD01680C3151E8002F22F4D1
:101EA000907241E80023002BF5D10168143151E80C
:101EB000002F22F0010241E80023002BF5D1016B35
:101EC000012909D101680C3151E8002F22F01002DC
:101ED00041E80023002BF5D1202180F83E1000219D
:101EE0000163704708B590F83E10222901D0022006
:101EF00008BD82684FF480539A4201D1016921B133
:101F0000816A9A421BD04AB10AE00268816A52682B
:101F1000C2F308020A80816A891C08E0026972B172
:101F20000268526802F07F020A70816A491C81626D
:101F3000C18D491E0904090CC18503D019E002684E
:101F40005268F1E70168CA6822F02002CA6001689D
:101F5000CA6822F48072CA6001684A6922F00102EC
:101F60004A61202180F83E10016B012903D0FFF760
:101F7000E5FB002008BD0021016301680C3151E838
:101F8000002F22F0100241E80023002BF5D1016858
:101F90000A68D20602D50A6849680091818DFFF768
:101FA00008FAE6E770B5044600680169E26821F4C2
:101FB0004051114301612169A068E26908436169E8
:101FC000114308432168CA6849F20C639A430243EB
:101FD000CA6020684169A26921F4407111434161DE
:101FE00031492068884202D03049884202D1FEF748
:101FF00063FC01E0FEF750FCE2690023192164252F
:102000003226B2F5004F626828D0A0FB0101930F81
:102010009200FEF7D7F80146B0FBF5F06FF018021A
:10202000504301EB800006EB0010B0FBF5F000F030
:10203000F002B1FBF5F002EB0012B1FBF5F06FF02E
:102040001803584301EB800006EB0010B0FBF5F0DD
:1020500000F00F0021681044886070BDA0FB0101F2
:1020600092185B41FEF7AEF80146B0FBF5F00201B5
:10207000B1FBF5F06FF01803584301EB800006EB5D
:10208000C000B0FBF5F000F0F80002EB4002B1FB3D
:10209000F5F0584301EB800006EBC000B0FBF5F013
:1020A00000F00700D6E700000010014000140140D6
:1020B00081628285C28500210164222280F83E204F
:1020C00080F83C100168CA6842F48072CA600168F6
:1020D0004A6942F001024A610068C16841F020018A
:1020E000C160002070472DE9F041984617460E4622
:1020F0000446069D27E0681C25D02DB1FEF790FA16
:10210000A0EB0800A8421ED920680C3050E8001F40
:1021100021F4D07140E80012002AF5D12068143073
:1021200050E8001F21F0010140E80012002AF5D11B
:10213000202084F83D0084F83E00002084F83C0014
:102140000320BDE8F0812068006836EA000004D072
:102150000020B842CFD00020F3E70120F9E70000CB
:102160000148FFF729B90000F4000020FEE7000055
:102170000FB4054B10B503A9044A029800F028F8E3
:1021800010BC5DF814FB0000252300081800002097
:102190000907090E002804DB00F1E02080F8001494
:1021A000704700F00F0000F1E02080F8141D704728
:1021B00002E008C8121F08C1002AFAD17047704710
:1021C000002001E001C1121F002AFBD1704700006E
:1021D0002DE9FF4F89B09B460446002506E02528DF
:1021E0000BD05A460B999047641C6D1C2078002830
:1021F000F5D10DB02846BDE8F08F0027B846012282
:10220000474900E0074314F8013F203B02FA03F07E
:102210000842F7D120782E2819D114F8010F47F081
:1022200004072A280ED06FF02F022078A0F1300189
:1022300009290CD808EB880102EB410100EB0108E9
:10224000641CF2E70A98641C50F8048B0A9020780A
:102250000028CED0642808D0692806D075281ED062
:102260005A460B9990476D1C58E00A994FF00A099D
:1022700001C90A91002802DA40422D2102E0390505
:1022800004D52B218DF82010012103E0F90704D09B
:102290002021F7E78A4608AE0DE00021FAE70A9907
:1022A0004FF00A0901C90A91F7E74946FDF7CDFF4A
:1022B000303106F8011D0028F7D1ADEB060000F122
:1022C0002009780701D44FF00108C84502DDA8EBCA
:1022D000090000E000208046002706E008A85A46D2
:1022E000C05D0B9990476D1C7F1C5745F6DB04E0E1
:1022F00030205A460B9990476D1CB8F10001A8F1A7
:102300000108F5DC05E016F8010B5A460B999047D9
:102310006D1CB9F10001A9F10109F4DC641C65E749
:102320000928010013B54FF47A7301226946024867
:10233000FFF718FA00981CBDF4000020FEF77EF9A4
:10234000FFF7D8FBFFF7B2FAFFF786FBFFF7AAFB10
:10235000FFF712FBFFF748FB0020FFF79BFA002076
:10236000FDF7BAFF0020FDF7B7FF064C207800B15B
:102370000120FFF78FFAFFF751FA3220FEF71AF823
:10238000F4E7000000000020000000000000000052
:10239000010203040607080900000000010203040B
:1023A000C0230008000000201C000000B02100082D
:1023B000DC2300081C0000201C050000C0210008D0
:1023C00000000000000000000100000010000000FC
:0C23D000000000000024F40000000000E9
:040000050800018965
:00000001FF
